{"abi":[{"type":"function","name":"allPairs","inputs":[{"name":"","type":"uint256","internalType":"uint256"}],"outputs":[{"name":"","type":"address","internalType":"address"}],"stateMutability":"view"},{"type":"function","name":"allPairsLength","inputs":[],"outputs":[{"name":"","type":"uint256","internalType":"uint256"}],"stateMutability":"view"},{"type":"function","name":"createPair","inputs":[{"name":"tokenA","type":"address","internalType":"address"},{"name":"tokenB","type":"address","internalType":"address"}],"outputs":[{"name":"pair","type":"address","internalType":"address"}],"stateMutability":"nonpayable"},{"type":"function","name":"feeTo","inputs":[],"outputs":[{"name":"","type":"address","internalType":"address"}],"stateMutability":"view"},{"type":"function","name":"feeToSetter","inputs":[],"outputs":[{"name":"","type":"address","internalType":"address"}],"stateMutability":"view"},{"type":"function","name":"getPair","inputs":[{"name":"tokenA","type":"address","internalType":"address"},{"name":"tokenB","type":"address","internalType":"address"}],"outputs":[{"name":"","type":"address","internalType":"address"}],"stateMutability":"view"},{"type":"function","name":"pairs","inputs":[{"name":"","type":"address","internalType":"address"},{"name":"","type":"address","internalType":"address"}],"outputs":[{"name":"","type":"address","internalType":"address"}],"stateMutability":"view"},{"type":"function","name":"setFeeTo","inputs":[{"name":"","type":"address","internalType":"address"}],"outputs":[],"stateMutability":"nonpayable"},{"type":"function","name":"setFeeToSetter","inputs":[{"name":"","type":"address","internalType":"address"}],"outputs":[],"stateMutability":"nonpayable"},{"type":"event","name":"PairCreated","inputs":[{"name":"token0","type":"address","indexed":true,"internalType":"address"},{"name":"token1","type":"address","indexed":true,"internalType":"address"},{"name":"pair","type":"address","indexed":false,"internalType":"address"},{"name":"","type":"uint256","indexed":false,"internalType":"uint256"}],"anonymous":false}],"bytecode":{"object":"0x60808060405234601557610429908161001a8239f35b5f80fdfe60806040526004361015610011575f80fd5b5f3560e01c8063017e7e5814610173578063094b7415146101735780631e3dd18b14610131578063574f2ba31461011457806369454b8614610081578063a2e74af61461007c578063c9c65396146100d6578063e6a43905146100815763f46901ed1461007c575f80fd5b6101e5565b346100d25760403660031901126100d25761009a6101b9565b6100a26101cf565b6001600160a01b039182165f90815260208181526040808320938516835292815290829020549151919092168152f35b5f80fd5b346100d25760403660031901126100d25760206101026100f46101b9565b6100fc6101cf565b90610200565b6040516001600160a01b039091168152f35b346100d2575f3660031901126100d2576020600154604051908152f35b346100d25760203660031901126100d2576004356001548110156100d25761015a60209161018d565b905460405160039290921b1c6001600160a01b03168152f35b346100d2575f3660031901126100d25760206040515f8152f35b6001548110156101a55760015f5260205f2001905f90565b634e487b7160e01b5f52603260045260245ffd5b600435906001600160a01b03821682036100d257565b602435906001600160a01b03821682036100d257565b346100d25760203660031901126100d2576101fe6101b9565b005b6001600160a01b038281169082168082146103b85710156103b2575b6001600160a01b03811690811561037e575f828152602081815260408083206001600160a01b03878116855292529091205416610358576040519060208201906bffffffffffffffffffffffff199060601b1681526bffffffffffffffffffffffff198460601b166034830152426048830152604882526080820182811067ffffffffffffffff821117610344576040908152915190205f83815260208181528382206001600160a01b039687168352815283822080546001600160a01b0319908116949097169384179055818152838220948252939093529120805490921681179091556001546801000000000000000081101561034457806001610325920160015561018d565b81546001600160a01b0360039290921b91821b19169083901b17905590565b634e487b7160e01b5f52604160045260245ffd5b505f908152602081815260408083206001600160a01b0394851684529091529020541690565b60405162461bcd60e51b815260206004820152600c60248201526b5a45524f5f4144445245535360a01b6044820152606490fd5b9061021c565b60405162461bcd60e51b81526020600482015260136024820152724944454e544943414c5f41444452455353455360681b6044820152606490fdfea264697066735822122047c9e2bdbf769c06682ad2c151f439e097d9e5a96ea524c39d4114674013612b64736f6c634300081c0033","linkReferences":{}},"methodIdentifiers":{"allPairs(uint256)":"1e3dd18b","allPairsLength()":"574f2ba3","createPair(address,address)":"c9c65396","feeTo()":"017e7e58","feeToSetter()":"094b7415","getPair(address,address)":"e6a43905","pairs(address,address)":"69454b86","setFeeTo(address)":"f46901ed","setFeeToSetter(address)":"a2e74af6"},"id":62}