{"abi":[{"type":"constructor","inputs":[{"name":"_kaitoAddress","type":"address","internalType":"address"},{"name":"_admins","type":"address[]","internalType":"address[]"}],"stateMutability":"nonpayable"},{"type":"function","name":"addAdmin","inputs":[{"name":"newAdmin","type":"address","internalType":"address"}],"outputs":[],"stateMutability":"nonpayable"},{"type":"function","name":"getBalance","inputs":[],"outputs":[{"name":"","type":"uint256","internalType":"uint256"}],"stateMutability":"view"},{"type":"function","name":"getWinners","inputs":[{"name":"yapRequestId","type":"uint256","internalType":"uint256"}],"outputs":[{"name":"","type":"address[]","internalType":"address[]"}],"stateMutability":"view"},{"type":"function","name":"getWinnersAmounts","inputs":[{"name":"yapRequestId","type":"uint256","internalType":"uint256"}],"outputs":[{"name":"","type":"uint256[]","internalType":"uint256[]"}],"stateMutability":"view"},{"type":"function","name":"isAdmin","inputs":[{"name":"_address","type":"address","internalType":"address"}],"outputs":[{"name":"","type":"bool","internalType":"bool"}],"stateMutability":"view"},{"type":"function","name":"owner","inputs":[],"outputs":[{"name":"","type":"address","internalType":"address"}],"stateMutability":"view"},{"type":"function","name":"renounceOwnership","inputs":[],"outputs":[],"stateMutability":"nonpayable"},{"type":"function","name":"rewardYapWinners","inputs":[{"name":"yapRequestId","type":"uint256","internalType":"uint256"},{"name":"winners","type":"address[]","internalType":"address[]"},{"name":"winnersRewards","type":"uint256[]","internalType":"uint256[]"}],"outputs":[],"stateMutability":"nonpayable"},{"type":"function","name":"transferOwnership","inputs":[{"name":"newOwner","type":"address","internalType":"address"}],"outputs":[],"stateMutability":"nonpayable"},{"type":"function","name":"withdrawBalance","inputs":[{"name":"to","type":"address","internalType":"address"}],"outputs":[],"stateMutability":"nonpayable"},{"type":"event","name":"BalanceWithdrawn","inputs":[{"name":"to","type":"address","indexed":true,"internalType":"address"},{"name":"caller","type":"address","indexed":true,"internalType":"address"},{"name":"amount","type":"uint256","indexed":false,"internalType":"uint256"}],"anonymous":false},{"type":"event","name":"OwnershipTransferred","inputs":[{"name":"previousOwner","type":"address","indexed":true,"internalType":"address"},{"name":"newOwner","type":"address","indexed":true,"internalType":"address"}],"anonymous":false},{"type":"event","name":"RewardsDistributed","inputs":[{"name":"yapId","type":"uint256","indexed":true,"internalType":"uint256"},{"name":"winners","type":"address[]","indexed":false,"internalType":"address[]"},{"name":"rewardPerWinner","type":"uint256","indexed":false,"internalType":"uint256"}],"anonymous":false},{"type":"error","name":"BudgetMustBeGreaterThanZero","inputs":[]},{"type":"error","name":"InsufficientBudget","inputs":[]},{"type":"error","name":"InvalidERC20Address","inputs":[]},{"type":"error","name":"InvalidWinnersProvided","inputs":[]},{"type":"error","name":"InvalidYapRequestId","inputs":[]},{"type":"error","name":"NoWinnersProvided","inputs":[]},{"type":"error","name":"OnlyAdminsCanDistributeRewards","inputs":[]},{"type":"error","name":"OwnableInvalidOwner","inputs":[{"name":"owner","type":"address","internalType":"address"}]},{"type":"error","name":"OwnableUnauthorizedAccount","inputs":[{"name":"account","type":"address","internalType":"address"}]},{"type":"error","name":"ReentrancyGuardReentrantCall","inputs":[]},{"type":"error","name":"SafeERC20FailedOperation","inputs":[{"name":"token","type":"address","internalType":"address"}]},{"type":"error","name":"TokenTransferFailed","inputs":[]},{"type":"error","name":"ValueMustBeGreaterThanZero","inputs":[]},{"type":"error","name":"YapRequestNotActive","inputs":[]},{"type":"error","name":"YapRequestNotFound","inputs":[]}],"bytecode":{"object":"0x60806040523461019057610b8980380380610019816101a8565b92833981019060408183031261019057610032816101cd565b602082015190916001600160401b03821161019057019180601f84011215610190578251926001600160401b038411610194578360051b906020806100788185016101a8565b80978152019282010192831161019057602001905b8282106101785750505060015f5533156101655760018054336001600160a01b0319821681179092556001600160a01b03167f8be0079c531659141344cd1fd0a4f28419497f9722a3daafe3b4186f6b6457e05f80a3335f908152600560205260408120805460ff19166001179055600280546001600160a01b0319166001600160a01b0393909316929092179091555b815181101561015657600190818060a01b0360208260051b85010151165f52600560205260405f208260ff198254161790550161011e565b6040516109a790816101e28239f35b631e4fbdf760e01b5f525f60045260245ffd5b60208091610185846101cd565b81520191019061008d565b5f80fd5b634e487b7160e01b5f52604160045260245ffd5b6040519190601f01601f191682016001600160401b0381118382101761019457604052565b51906001600160a01b03821682036101905756fe6080806040526004361015610012575f80fd5b5f3560e01c90816312065fe0146107655750806324d7806c146107285780635513bcfe146104305780635f027d0d1461038a5780636b1426a4146102d2578063704802751461028e578063715018a614610233578063756af45f1461013c5780638da5cb5b146101145763f2fde38b1461008a575f80fd5b34610110576020366003190112610110576100a36107e8565b6100ab61094a565b6001600160a01b031680156100fd57600180546001600160a01b0319811683179091556001600160a01b03167f8be0079c531659141344cd1fd0a4f28419497f9722a3daafe3b4186f6b6457e05f80a3005b631e4fbdf760e01b5f525f60045260245ffd5b5f80fd5b34610110575f366003190112610110576001546040516001600160a01b039091168152602090f35b34610110576020366003190112610110576101556107e8565b61015d61089e565b61016561094a565b6002546040516370a0823160e01b8152306004820152906001600160a01b0316602082602481845afa918215610228575f926101f4575b50816101a9575b60015f55005b81836101b4926108bc565b60405190815233916001600160a01b0316907f50630162af2fe1b3638257703351230fbe331ec0b7368aba0eb78f2dabd03c0c90602090a38080806101a3565b9091506020813d602011610220575b816102106020938361082f565b810103126101105751908361019c565b3d9150610203565b6040513d5f823e3d90fd5b34610110575f3660031901126101105761024b61094a565b600180546001600160a01b031981169091555f906001600160a01b03167f8be0079c531659141344cd1fd0a4f28419497f9722a3daafe3b4186f6b6457e08280a3005b34610110576020366003190112610110576102a76107e8565b6102af61094a565b6001600160a01b03165f908152600560205260409020805460ff19166001179055005b34610110576020366003190112610110576004355f52600360205260405f20604051806020835491828152019081935f5260205f20905f5b81811061036b575050508161032091038261082f565b604051918291602083019060208452518091526040830191905f5b818110610349575050500390f35b82516001600160a01b031684528594506020938401939092019160010161033b565b82546001600160a01b031684526020909301926001928301920161030a565b34610110576020366003190112610110576004355f52600460205260405f20604051806020835491828152019081935f5260205f20905f5b81811061041a57505050816103d891038261082f565b604051918291602083019060208452518091526040830191905f5b818110610401575050500390f35b82518452859450602093840193909201916001016103f3565b82548452602090930192600192830192016103c2565b346101105760603660031901126101105760043560243567ffffffffffffffff8111610110576104649036906004016107fe565b9060443567ffffffffffffffff8111610110576104859036906004016107fe565b9061048e61089e565b83158015610720575b6107115781840361070357335f52600560205260ff60405f205416156106f4575f915f5b8181106106c157506002546040516370a0823160e01b815230600482015290602090829060249082906001600160a01b03165afa908115610228575f9161068f575b508311610680575f5b85811061058c5750505060405192806040850160408652526060840192905f905b80821061056257867f9fb24ebd5544779d3767bbc63a8dc99755551da4fc78af9735b463bb176c17a28780888860208301520390a260015f55005b90919384359060018060a01b03821680920361011057602081600193829352019501920190610527565b865f52600360205260405f206105ab6105a6838989610851565b610875565b908054600160401b81101561066c576105c991600182018155610889565b819291549060031b9160018060a01b0316821b9160018060a01b03901b1916179055865f52600460205260405f2090610603818486610851565b35825492600160401b84101561066c57836106249160018096018155610889565b819291549060031b91821b915f19901b1916179055610666828060a01b03600254166106546105a6848b8b610851565b61065f848789610851565b35916108bc565b01610506565b634e487b7160e01b5f52604160045260245ffd5b634dd23c8b60e01b5f5260045ffd5b90506020813d6020116106b9575b816106aa6020938361082f565b810103126101105751876104fd565b3d915061069d565b926106cd848385610851565b3581018091116106e057926001016104bb565b634e487b7160e01b5f52601160045260245ffd5b634c60237960e01b5f5260045ffd5b626f491760e91b5f5260045ffd5b6305568ffd60e31b5f5260045ffd5b508115610497565b34610110576020366003190112610110576001600160a01b036107496107e8565b165f526005602052602060ff60405f2054166040519015158152f35b34610110575f366003190112610110576002546370a0823160e01b8252306004830152602090829060249082906001600160a01b03165afa8015610228575f906107b5575b602090604051908152f35b506020813d6020116107e0575b816107cf6020938361082f565b8101031261011057602090516107aa565b3d91506107c2565b600435906001600160a01b038216820361011057565b9181601f840112156101105782359167ffffffffffffffff8311610110576020808501948460051b01011161011057565b90601f8019910116810190811067ffffffffffffffff82111761066c57604052565b91908110156108615760051b0190565b634e487b7160e01b5f52603260045260245ffd5b356001600160a01b03811681036101105790565b8054821015610861575f5260205f2001905f90565b60025f54146108ad5760025f55565b633ee5aeb560e01b5f5260045ffd5b60405163a9059cbb60e01b60208281019182526001600160a01b03909416602483015260448083019590955293815290925f916108fa60648261082f565b519082855af115610228575f513d61094157506001600160a01b0381163b155b6109215750565b635274afe760e01b5f9081526001600160a01b0391909116600452602490fd5b6001141561091a565b6001546001600160a01b0316330361095e57565b63118cdaa760e01b5f523360045260245ffdfea2646970667358221220c672d7fd26fcf2e2725b2ac09df1fab4c5708e8354fa7808fbcfaacac56bac0164736f6c634300081c0033","linkReferences":{}},"methodIdentifiers":{"addAdmin(address)":"70480275","getBalance()":"12065fe0","getWinners(uint256)":"6b1426a4","getWinnersAmounts(uint256)":"5f027d0d","isAdmin(address)":"24d7806c","owner()":"8da5cb5b","renounceOwnership()":"715018a6","rewardYapWinners(uint256,address[],uint256[])":"5513bcfe","transferOwnership(address)":"f2fde38b","withdrawBalance(address)":"756af45f"},"id":57}