{
  "abi": [
    {
      "type": "constructor",
      "inputs": [
        {
          "name": "_kaitoAddress",
          "type": "address",
          "internalType": "address"
        },
        {
          "name": "_admins",
          "type": "address[]",
          "internalType": "address[]"
        }
      ],
      "stateMutability": "nonpayable"
    },
    {
      "type": "function",
      "name": "createRequest",
      "inputs": [
        {
          "name": "_budget",
          "type": "uint256",
          "internalType": "uint256"
        }
      ],
      "outputs": [
        {
          "name": "",
          "type": "uint256",
          "internalType": "uint256"
        }
      ],
      "stateMutability": "nonpayable"
    },
    {
      "type": "function",
      "name": "getTotalYapRequests",
      "inputs": [],
      "outputs": [
        {
          "name": "",
          "type": "uint256",
          "internalType": "uint256"
        }
      ],
      "stateMutability": "view"
    },
    {
      "type": "function",
      "name": "getWinners",
      "inputs": [
        {
          "name": "yapRequestId",
          "type": "uint256",
          "internalType": "uint256"
        }
      ],
      "outputs": [
        {
          "name": "",
          "type": "address[]",
          "internalType": "address[]"
        }
      ],
      "stateMutability": "view"
    },
    {
      "type": "function",
      "name": "getYapRequest",
      "inputs": [
        {
          "name": "yapRequestId",
          "type": "uint256",
          "internalType": "uint256"
        }
      ],
      "outputs": [
        {
          "name": "",
          "type": "tuple",
          "internalType": "struct Escrow.YapRequest",
          "components": [
            {
              "name": "yapId",
              "type": "uint256",
              "internalType": "uint256"
            },
            {
              "name": "creator",
              "type": "address",
              "internalType": "address"
            },
            {
              "name": "budget",
              "type": "uint256",
              "internalType": "uint256"
            },
            {
              "name": "isActive",
              "type": "bool",
              "internalType": "bool"
            }
          ]
        }
      ],
      "stateMutability": "view"
    },
    {
      "type": "function",
      "name": "isAdmin",
      "inputs": [
        {
          "name": "_address",
          "type": "address",
          "internalType": "address"
        }
      ],
      "outputs": [
        {
          "name": "",
          "type": "bool",
          "internalType": "bool"
        }
      ],
      "stateMutability": "view"
    },
    {
      "type": "function",
      "name": "owner",
      "inputs": [],
      "outputs": [
        {
          "name": "",
          "type": "address",
          "internalType": "address"
        }
      ],
      "stateMutability": "view"
    },
    {
      "type": "function",
      "name": "renounceOwnership",
      "inputs": [],
      "outputs": [],
      "stateMutability": "nonpayable"
    },
    {
      "type": "function",
      "name": "rewardYapWinners",
      "inputs": [
        {
          "name": "yapRequestId",
          "type": "uint256",
          "internalType": "uint256"
        },
        {
          "name": "winners",
          "type": "address[]",
          "internalType": "address[]"
        },
        {
          "name": "winnersRewards",
          "type": "uint256[]",
          "internalType": "uint256[]"
        }
      ],
      "outputs": [],
      "stateMutability": "nonpayable"
    },
    {
      "type": "function",
      "name": "transferOwnership",
      "inputs": [
        {
          "name": "newOwner",
          "type": "address",
          "internalType": "address"
        }
      ],
      "outputs": [],
      "stateMutability": "nonpayable"
    },
    {
      "type": "event",
      "name": "OwnershipTransferred",
      "inputs": [
        {
          "name": "previousOwner",
          "type": "address",
          "indexed": true,
          "internalType": "address"
        },
        {
          "name": "newOwner",
          "type": "address",
          "indexed": true,
          "internalType": "address"
        }
      ],
      "anonymous": false
    },
    {
      "type": "event",
      "name": "RewardsDistributed",
      "inputs": [
        {
          "name": "yapId",
          "type": "uint256",
          "indexed": true,
          "internalType": "uint256"
        },
        {
          "name": "winners",
          "type": "address[]",
          "indexed": false,
          "internalType": "address[]"
        },
        {
          "name": "rewardPerWinner",
          "type": "uint256",
          "indexed": false,
          "internalType": "uint256"
        }
      ],
      "anonymous": false
    },
    {
      "type": "event",
      "name": "YapRequestCreated",
      "inputs": [
        {
          "name": "yapId",
          "type": "uint256",
          "indexed": true,
          "internalType": "uint256"
        },
        {
          "name": "creator",
          "type": "address",
          "indexed": true,
          "internalType": "address"
        },
        {
          "name": "budget",
          "type": "uint256",
          "indexed": false,
          "internalType": "uint256"
        }
      ],
      "anonymous": false
    },
    {
      "type": "error",
      "name": "BudgetMustBeGreaterThanZero",
      "inputs": []
    },
    {
      "type": "error",
      "name": "InsufficientBudget",
      "inputs": []
    },
    {
      "type": "error",
      "name": "InvalidERC20Address",
      "inputs": []
    },
    {
      "type": "error",
      "name": "InvalidWinnersProvided",
      "inputs": []
    },
    {
      "type": "error",
      "name": "InvalidYapRequestId",
      "inputs": []
    },
    {
      "type": "error",
      "name": "NativeTransferFailed",
      "inputs": []
    },
    {
      "type": "error",
      "name": "NoWinnersProvided",
      "inputs": []
    },
    {
      "type": "error",
      "name": "OnlyAdminsCanDistributeRewards",
      "inputs": []
    },
    {
      "type": "error",
      "name": "OwnableInvalidOwner",
      "inputs": [
        {
          "name": "owner",
          "type": "address",
          "internalType": "address"
        }
      ]
    },
    {
      "type": "error",
      "name": "OwnableUnauthorizedAccount",
      "inputs": [
        {
          "name": "account",
          "type": "address",
          "internalType": "address"
        }
      ]
    },
    {
      "type": "error",
      "name": "ReentrancyGuardReentrantCall",
      "inputs": []
    },
    {
      "type": "error",
      "name": "SafeERC20FailedOperation",
      "inputs": [
        {
          "name": "token",
          "type": "address",
          "internalType": "address"
        }
      ]
    },
    {
      "type": "error",
      "name": "TokenTransferFailed",
      "inputs": []
    },
    {
      "type": "error",
      "name": "ValueMustBeGreaterThanZero",
      "inputs": []
    },
    {
      "type": "error",
      "name": "YapRequestNotActive",
      "inputs": []
    },
    {
      "type": "error",
      "name": "YapRequestNotFound",
      "inputs": []
    }
  ],
  "bytecode": {
    "object": "0x60806040523461019457610b2280380380610019816101ac565b92833981019060408183031261019457610032816101d1565b602082015190916001600160401b03821161019457019180601f84011215610194578251926001600160401b038411610198578360051b906020806100788185016101ac565b80978152019282010192831161019457602001905b82821061017c5750505060015f5533156101695760018054336001600160a01b0319821681179092556001600160a01b03167f8be0079c531659141344cd1fd0a4f28419497f9722a3daafe3b4186f6b6457e05f80a35f6002819055338152600660205260408120805460ff19166001179055600380546001600160a01b0319166001600160a01b0393909316929092179091555b815181101561015a57600190818060a01b0360208260051b85010151165f52600660205260405f208260ff1982541617905501610122565b60405161093c90816101e68239f35b631e4fbdf760e01b5f525f60045260245ffd5b60208091610189846101d1565b81520191019061008d565b5f80fd5b634e487b7160e01b5f52604160045260245ffd5b6040519190601f01601f191682016001600160401b0381118382101761019857604052565b51906001600160a01b03821682036101945756fe6080806040526004361015610012575f80fd5b5f3560e01c90816315dae71c1461079b575080631c9024d3146106d757806324d7806c1461069a5780635513bcfe146103a85780636b1426a4146102f0578063715018a6146102955780638da5cb5b1461026d578063da7620a3146101095763f2fde38b1461007f575f80fd5b34610105576020366003190112610105576100986107b5565b6100a061087c565b6001600160a01b031680156100f257600180546001600160a01b0319811683179091556001600160a01b03167f8be0079c531659141344cd1fd0a4f28419497f9722a3daafe3b4186f6b6457e05f80a3005b631e4fbdf760e01b5f525f60045260245ffd5b5f80fd5b346101055760203660031901126101055760043561012561085e565b801561025e57331561024f576003546040516323b872dd60e01b602082015233602482015230604482015260648082018490528152610177916001600160a01b0316610172608483610818565b6108a3565b600254906001820180921161023b5781602092600255600360405161019b816107fc565b82815284810133815260408201908582526060830194600186525f526004875260405f2092518355600183019060018060a01b039051166bffffffffffffffffffffffff60a01b825416179055516002820155019051151560ff8019835416911617905560025490604051908152817f5d8b008b43b2e2e7fea50bede538c051b4d690ce6ac95790c864e3d81c636fbe843393a360015f55604051908152f35b634e487b7160e01b5f52601160045260245ffd5b63b0cadf0760e01b5f5260045ffd5b6357971f1d60e01b5f5260045ffd5b34610105575f366003190112610105576001546040516001600160a01b039091168152602090f35b34610105575f366003190112610105576102ad61087c565b600180546001600160a01b031981169091555f906001600160a01b03167f8be0079c531659141344cd1fd0a4f28419497f9722a3daafe3b4186f6b6457e08280a3005b34610105576020366003190112610105576004355f52600560205260405f20604051806020835491828152019081935f5260205f20905f5b818110610389575050508161033e910382610818565b604051918291602083019060208452518091526040830191905f5b818110610367575050500390f35b82516001600160a01b0316845285945060209384019390920191600101610359565b82546001600160a01b0316845260209093019260019283019201610328565b346101055760603660031901126101055760043560243567ffffffffffffffff8111610105576103dc9036906004016107cb565b9060443567ffffffffffffffff8111610105576103fd9036906004016107cb565b9061040661085e565b83158015610692575b6106835781840361067557845f52600460205260405f2091604051610433816107fc565b835480825260018501546001600160a01b0316602083015260028501546040830190815260039095015460ff16151560609092019182521561024f57511561066657335f52600660205260ff60405f20541615610657575f925f5b8281106106385750518311610629575f868152600460205260408120600301805460ff191690555b85811061053c5750505060405192806040850160408652526060840192905f905b80821061051257867f9fb24ebd5544779d3767bbc63a8dc99755551da4fc78af9735b463bb176c17a28780888860208301520390a260015f55005b90919384359060018060a01b038216809203610105576020816001938293520195019201906104d7565b865f52600560205260405f209061055c61055782898961083a565b61084a565b8254680100000000000000008110156106155760018101808555811015610601575f93845260209093209290920180546001600160a01b0319166001600160a01b039384161790556003546001926105fb91166105bd610557848b8b61083a565b906105c984878961083a565b356040519263a9059cbb60e01b6020850152868060a01b03166024840152604483015260448252610172606483610818565b016104b6565b634e487b7160e01b5f52603260045260245ffd5b634e487b7160e01b5f52604160045260245ffd5b634dd23c8b60e01b5f5260045ffd5b9361064485848661083a565b35810180911161023b579360010161048e565b634c60237960e01b5f5260045ffd5b639419f98f60e01b5f5260045ffd5b626f491760e91b5f5260045ffd5b6305568ffd60e31b5f5260045ffd5b50811561040f565b34610105576020366003190112610105576001600160a01b036106bb6107b5565b165f526006602052602060ff60405f2054166040519015158152f35b34610105576020366003190112610105575f60606040516106f7816107fc565b82815282602082015282604082015201526004355f52600460205260405f20604051610722816107fc565b815480825260018301546001600160a01b03166020830190815260028401546040840190815260039094015460ff16151560608401908152909390911561078c576080936040519351845260018060a01b0390511660208401525160408301525115156060820152f35b6311d6c75b60e31b5f5260045ffd5b34610105575f366003190112610105576020906002548152f35b600435906001600160a01b038216820361010557565b9181601f840112156101055782359167ffffffffffffffff8311610105576020808501948460051b01011161010557565b6080810190811067ffffffffffffffff82111761061557604052565b90601f8019910116810190811067ffffffffffffffff82111761061557604052565b91908110156106015760051b0190565b356001600160a01b03811681036101055790565b60025f541461086d5760025f55565b633ee5aeb560e01b5f5260045ffd5b6001546001600160a01b0316330361089057565b63118cdaa760e01b5f523360045260245ffd5b905f602091828151910182855af1156108fb575f513d6108f257506001600160a01b0381163b155b6108d25750565b635274afe760e01b5f9081526001600160a01b0391909116600452602490fd5b600114156108cb565b6040513d5f823e3d90fdfea2646970667358221220161d1954047f9f5afccbc784039692afafc9ee721d0f1526e74b83a8185c15dd64736f6c634300081c0033",
    "linkReferences": {}
  },
  "methodIdentifiers": {
    "createRequest(uint256)": "da7620a3",
    "getTotalYapRequests()": "15dae71c",
    "getWinners(uint256)": "6b1426a4",
    "getYapRequest(uint256)": "1c9024d3",
    "isAdmin(address)": "24d7806c",
    "owner()": "8da5cb5b",
    "renounceOwnership()": "715018a6",
    "rewardYapWinners(uint256,address[],uint256[])": "5513bcfe",
    "transferOwnership(address)": "f2fde38b"
  },
  "id": 36
}