{
  "abi": [
    {
      "type": "constructor",
      "inputs": [],
      "stateMutability": "nonpayable"
    },
    {
      "type": "function",
      "name": "acceptOwnership",
      "inputs": [],
      "outputs": [],
      "stateMutability": "nonpayable"
    },
    {
      "type": "function",
      "name": "addAdmin",
      "inputs": [
        {
          "name": "_admin",
          "type": "address",
          "internalType": "address"
        }
      ],
      "outputs": [],
      "stateMutability": "nonpayable"
    },
    {
      "type": "function",
      "name": "addAssetSupport",
      "inputs": [
        {
          "name": "asset",
          "type": "address",
          "internalType": "address"
        },
        {
          "name": "minimumBudget",
          "type": "uint256",
          "internalType": "uint256"
        }
      ],
      "outputs": [],
      "stateMutability": "nonpayable"
    },
    {
      "type": "function",
      "name": "createRequest",
      "inputs": [
        {
          "name": "_escrowId",
          "type": "uint256",
          "internalType": "uint256"
        },
        {
          "name": "_budget",
          "type": "uint256",
          "internalType": "uint256"
        },
        {
          "name": "_fee",
          "type": "uint256",
          "internalType": "uint256"
        },
        {
          "name": "_asset",
          "type": "address",
          "internalType": "address"
        },
        {
          "name": "_jobId",
          "type": "string",
          "internalType": "string"
        }
      ],
      "outputs": [
        {
          "name": "",
          "type": "uint256",
          "internalType": "uint256"
        },
        {
          "name": "",
          "type": "uint256",
          "internalType": "uint256"
        },
        {
          "name": "",
          "type": "uint256",
          "internalType": "uint256"
        },
        {
          "name": "",
          "type": "address",
          "internalType": "address"
        },
        {
          "name": "",
          "type": "address",
          "internalType": "address"
        }
      ],
      "stateMutability": "payable"
    },
    {
      "type": "function",
      "name": "getAllAssets",
      "inputs": [],
      "outputs": [
        {
          "name": "",
          "type": "address[]",
          "internalType": "address[]"
        }
      ],
      "stateMutability": "view"
    },
    {
      "type": "function",
      "name": "getFeeBalance",
      "inputs": [
        {
          "name": "asset",
          "type": "address",
          "internalType": "address"
        }
      ],
      "outputs": [
        {
          "name": "",
          "type": "uint256",
          "internalType": "uint256"
        }
      ],
      "stateMutability": "view"
    },
    {
      "type": "function",
      "name": "getMinimumBudget",
      "inputs": [
        {
          "name": "asset",
          "type": "address",
          "internalType": "address"
        }
      ],
      "outputs": [
        {
          "name": "",
          "type": "uint256",
          "internalType": "uint256"
        }
      ],
      "stateMutability": "view"
    },
    {
      "type": "function",
      "name": "getTotalBalance",
      "inputs": [
        {
          "name": "asset",
          "type": "address",
          "internalType": "address"
        }
      ],
      "outputs": [
        {
          "name": "",
          "type": "uint256",
          "internalType": "uint256"
        }
      ],
      "stateMutability": "view"
    },
    {
      "type": "function",
      "name": "getTotalYapRequests",
      "inputs": [],
      "outputs": [
        {
          "name": "",
          "type": "uint256",
          "internalType": "uint256"
        }
      ],
      "stateMutability": "view"
    },
    {
      "type": "function",
      "name": "getWinners",
      "inputs": [
        {
          "name": "yapRequestId",
          "type": "uint256",
          "internalType": "uint256"
        }
      ],
      "outputs": [
        {
          "name": "",
          "type": "address[]",
          "internalType": "address[]"
        }
      ],
      "stateMutability": "view"
    },
    {
      "type": "function",
      "name": "getYapRequest",
      "inputs": [
        {
          "name": "yapRequestId",
          "type": "uint256",
          "internalType": "uint256"
        }
      ],
      "outputs": [
        {
          "name": "",
          "type": "tuple",
          "internalType": "struct EscrowLogic.YapRequest",
          "components": [
            {
              "name": "yapId",
              "type": "uint256",
              "internalType": "uint256"
            },
            {
              "name": "creator",
              "type": "address",
              "internalType": "address"
            },
            {
              "name": "budget",
              "type": "uint256",
              "internalType": "uint256"
            },
            {
              "name": "fee",
              "type": "uint256",
              "internalType": "uint256"
            },
            {
              "name": "asset",
              "type": "address",
              "internalType": "address"
            },
            {
              "name": "jobId",
              "type": "string",
              "internalType": "string"
            },
            {
              "name": "isActive",
              "type": "bool",
              "internalType": "bool"
            }
          ]
        }
      ],
      "stateMutability": "view"
    },
    {
      "type": "function",
      "name": "initialize",
      "inputs": [
        {
          "name": "_admins",
          "type": "address[]",
          "internalType": "address[]"
        },
        {
          "name": "initialOwner",
          "type": "address",
          "internalType": "address"
        }
      ],
      "outputs": [],
      "stateMutability": "nonpayable"
    },
    {
      "type": "function",
      "name": "isAdmin",
      "inputs": [
        {
          "name": "_address",
          "type": "address",
          "internalType": "address"
        }
      ],
      "outputs": [
        {
          "name": "",
          "type": "bool",
          "internalType": "bool"
        }
      ],
      "stateMutability": "view"
    },
    {
      "type": "function",
      "name": "isAssetSupported",
      "inputs": [
        {
          "name": "asset",
          "type": "address",
          "internalType": "address"
        }
      ],
      "outputs": [
        {
          "name": "",
          "type": "bool",
          "internalType": "bool"
        }
      ],
      "stateMutability": "view"
    },
    {
      "type": "function",
      "name": "owner",
      "inputs": [],
      "outputs": [
        {
          "name": "",
          "type": "address",
          "internalType": "address"
        }
      ],
      "stateMutability": "view"
    },
    {
      "type": "function",
      "name": "pendingOwner",
      "inputs": [],
      "outputs": [
        {
          "name": "",
          "type": "address",
          "internalType": "address"
        }
      ],
      "stateMutability": "view"
    },
    {
      "type": "function",
      "name": "removeAdmin",
      "inputs": [
        {
          "name": "_admin",
          "type": "address",
          "internalType": "address"
        }
      ],
      "outputs": [],
      "stateMutability": "nonpayable"
    },
    {
      "type": "function",
      "name": "removeAssetSupport",
      "inputs": [
        {
          "name": "asset",
          "type": "address",
          "internalType": "address"
        }
      ],
      "outputs": [],
      "stateMutability": "nonpayable"
    },
    {
      "type": "function",
      "name": "renounceOwnership",
      "inputs": [],
      "outputs": [],
      "stateMutability": "nonpayable"
    },
    {
      "type": "function",
      "name": "resetYapRequestCount",
      "inputs": [
        {
          "name": "newYapRequstCount",
          "type": "uint256",
          "internalType": "uint256"
        }
      ],
      "outputs": [],
      "stateMutability": "nonpayable"
    },
    {
      "type": "function",
      "name": "rewardAffiliateFromFees",
      "inputs": [
        {
          "name": "yapRequestId",
          "type": "uint256",
          "internalType": "uint256"
        },
        {
          "name": "affiliate",
          "type": "address",
          "internalType": "address"
        },
        {
          "name": "reward",
          "type": "uint256",
          "internalType": "uint256"
        }
      ],
      "outputs": [],
      "stateMutability": "nonpayable"
    },
    {
      "type": "function",
      "name": "rewardYapWinners",
      "inputs": [
        {
          "name": "yapRequestId",
          "type": "uint256",
          "internalType": "uint256"
        },
        {
          "name": "winners",
          "type": "address[]",
          "internalType": "address[]"
        },
        {
          "name": "winnersRewards",
          "type": "uint256[]",
          "internalType": "uint256[]"
        },
        {
          "name": "isLastBatch",
          "type": "bool",
          "internalType": "bool"
        }
      ],
      "outputs": [],
      "stateMutability": "nonpayable"
    },
    {
      "type": "function",
      "name": "topUpRequest",
      "inputs": [
        {
          "name": "yapRequestId",
          "type": "uint256",
          "internalType": "uint256"
        },
        {
          "name": "additionalBudget",
          "type": "uint256",
          "internalType": "uint256"
        },
        {
          "name": "additionalFee",
          "type": "uint256",
          "internalType": "uint256"
        }
      ],
      "outputs": [
        {
          "name": "",
          "type": "uint256",
          "internalType": "uint256"
        },
        {
          "name": "",
          "type": "uint256",
          "internalType": "uint256"
        },
        {
          "name": "",
          "type": "uint256",
          "internalType": "uint256"
        },
        {
          "name": "",
          "type": "address",
          "internalType": "address"
        },
        {
          "name": "",
          "type": "address",
          "internalType": "address"
        }
      ],
      "stateMutability": "payable"
    },
    {
      "type": "function",
      "name": "transferOwnership",
      "inputs": [
        {
          "name": "newOwner",
          "type": "address",
          "internalType": "address"
        }
      ],
      "outputs": [],
      "stateMutability": "nonpayable"
    },
    {
      "type": "function",
      "name": "updateAssetRequirements",
      "inputs": [
        {
          "name": "asset",
          "type": "address",
          "internalType": "address"
        },
        {
          "name": "minimumBudget",
          "type": "uint256",
          "internalType": "uint256"
        }
      ],
      "outputs": [],
      "stateMutability": "nonpayable"
    },
    {
      "type": "function",
      "name": "withdrawFees",
      "inputs": [
        {
          "name": "to",
          "type": "address",
          "internalType": "address"
        },
        {
          "name": "amount",
          "type": "uint256",
          "internalType": "uint256"
        },
        {
          "name": "asset",
          "type": "address",
          "internalType": "address"
        }
      ],
      "outputs": [],
      "stateMutability": "nonpayable"
    },
    {
      "type": "event",
      "name": "AdminAdded",
      "inputs": [
        {
          "name": "admin",
          "type": "address",
          "indexed": true,
          "internalType": "address"
        },
        {
          "name": "addedBy",
          "type": "address",
          "indexed": true,
          "internalType": "address"
        }
      ],
      "anonymous": false
    },
    {
      "type": "event",
      "name": "AdminRemoved",
      "inputs": [
        {
          "name": "admin",
          "type": "address",
          "indexed": true,
          "internalType": "address"
        },
        {
          "name": "removedBy",
          "type": "address",
          "indexed": true,
          "internalType": "address"
        }
      ],
      "anonymous": false
    },
    {
      "type": "event",
      "name": "AffiliateRewardFromFees",
      "inputs": [
        {
          "name": "yapRequestId",
          "type": "uint256",
          "indexed": true,
          "internalType": "uint256"
        },
        {
          "name": "affiliate",
          "type": "address",
          "indexed": false,
          "internalType": "address"
        },
        {
          "name": "reward",
          "type": "uint256",
          "indexed": false,
          "internalType": "uint256"
        }
      ],
      "anonymous": false
    },
    {
      "type": "event",
      "name": "AssetAdded",
      "inputs": [
        {
          "name": "asset",
          "type": "address",
          "indexed": true,
          "internalType": "address"
        },
        {
          "name": "minimumBudget",
          "type": "uint256",
          "indexed": false,
          "internalType": "uint256"
        }
      ],
      "anonymous": false
    },
    {
      "type": "event",
      "name": "AssetRemoved",
      "inputs": [
        {
          "name": "asset",
          "type": "address",
          "indexed": true,
          "internalType": "address"
        }
      ],
      "anonymous": false
    },
    {
      "type": "event",
      "name": "AssetUpdated",
      "inputs": [
        {
          "name": "asset",
          "type": "address",
          "indexed": true,
          "internalType": "address"
        },
        {
          "name": "minimumBudget",
          "type": "uint256",
          "indexed": false,
          "internalType": "uint256"
        }
      ],
      "anonymous": false
    },
    {
      "type": "event",
      "name": "Claimed",
      "inputs": [
        {
          "name": "yapId",
          "type": "uint256",
          "indexed": true,
          "internalType": "uint256"
        },
        {
          "name": "winner",
          "type": "address",
          "indexed": false,
          "internalType": "address"
        },
        {
          "name": "amount",
          "type": "uint256",
          "indexed": false,
          "internalType": "uint256"
        }
      ],
      "anonymous": false
    },
    {
      "type": "event",
      "name": "CreatorRefunded",
      "inputs": [
        {
          "name": "yapRequestId",
          "type": "uint256",
          "indexed": true,
          "internalType": "uint256"
        },
        {
          "name": "creator",
          "type": "address",
          "indexed": false,
          "internalType": "address"
        },
        {
          "name": "budgetLeft",
          "type": "uint256",
          "indexed": false,
          "internalType": "uint256"
        }
      ],
      "anonymous": false
    },
    {
      "type": "event",
      "name": "FeesWithdrawn",
      "inputs": [
        {
          "name": "to",
          "type": "address",
          "indexed": true,
          "internalType": "address"
        },
        {
          "name": "amount",
          "type": "uint256",
          "indexed": false,
          "internalType": "uint256"
        },
        {
          "name": "asset",
          "type": "address",
          "indexed": false,
          "internalType": "address"
        }
      ],
      "anonymous": false
    },
    {
      "type": "event",
      "name": "Initialized",
      "inputs": [
        {
          "name": "version",
          "type": "uint64",
          "indexed": false,
          "internalType": "uint64"
        }
      ],
      "anonymous": false
    },
    {
      "type": "event",
      "name": "Initialized",
      "inputs": [
        {
          "name": "admins",
          "type": "address[]",
          "indexed": false,
          "internalType": "address[]"
        }
      ],
      "anonymous": false
    },
    {
      "type": "event",
      "name": "MinimumBudgetReset",
      "inputs": [
        {
          "name": "newMinimumBudget",
          "type": "uint256",
          "indexed": false,
          "internalType": "uint256"
        }
      ],
      "anonymous": false
    },
    {
      "type": "event",
      "name": "MinimumFeeReset",
      "inputs": [
        {
          "name": "newMinimumFee",
          "type": "uint256",
          "indexed": false,
          "internalType": "uint256"
        }
      ],
      "anonymous": false
    },
    {
      "type": "event",
      "name": "OwnershipTransferStarted",
      "inputs": [
        {
          "name": "previousOwner",
          "type": "address",
          "indexed": true,
          "internalType": "address"
        },
        {
          "name": "newOwner",
          "type": "address",
          "indexed": true,
          "internalType": "address"
        }
      ],
      "anonymous": false
    },
    {
      "type": "event",
      "name": "OwnershipTransferred",
      "inputs": [
        {
          "name": "previousOwner",
          "type": "address",
          "indexed": true,
          "internalType": "address"
        },
        {
          "name": "newOwner",
          "type": "address",
          "indexed": true,
          "internalType": "address"
        }
      ],
      "anonymous": false
    },
    {
      "type": "event",
      "name": "RewardsDistributed",
      "inputs": [
        {
          "name": "yapRequestId",
          "type": "uint256",
          "indexed": true,
          "internalType": "uint256"
        },
        {
          "name": "winners",
          "type": "address[]",
          "indexed": false,
          "internalType": "address[]"
        },
        {
          "name": "totalReward",
          "type": "uint256",
          "indexed": false,
          "internalType": "uint256"
        }
      ],
      "anonymous": false
    },
    {
      "type": "event",
      "name": "YapRequestCountReset",
      "inputs": [
        {
          "name": "newYapRequestCount",
          "type": "uint256",
          "indexed": false,
          "internalType": "uint256"
        }
      ],
      "anonymous": false
    },
    {
      "type": "event",
      "name": "YapRequestCreated",
      "inputs": [
        {
          "name": "yapId",
          "type": "uint256",
          "indexed": true,
          "internalType": "uint256"
        },
        {
          "name": "creator",
          "type": "address",
          "indexed": true,
          "internalType": "address"
        },
        {
          "name": "jobId",
          "type": "string",
          "indexed": false,
          "internalType": "string"
        },
        {
          "name": "asset",
          "type": "address",
          "indexed": false,
          "internalType": "address"
        },
        {
          "name": "budget",
          "type": "uint256",
          "indexed": false,
          "internalType": "uint256"
        },
        {
          "name": "fee",
          "type": "uint256",
          "indexed": false,
          "internalType": "uint256"
        }
      ],
      "anonymous": false
    },
    {
      "type": "event",
      "name": "YapRequestTopUp",
      "inputs": [
        {
          "name": "yapId",
          "type": "uint256",
          "indexed": true,
          "internalType": "uint256"
        },
        {
          "name": "creator",
          "type": "address",
          "indexed": true,
          "internalType": "address"
        },
        {
          "name": "additionalBudget",
          "type": "uint256",
          "indexed": false,
          "internalType": "uint256"
        },
        {
          "name": "additionalFee",
          "type": "uint256",
          "indexed": false,
          "internalType": "uint256"
        },
        {
          "name": "asset",
          "type": "address",
          "indexed": false,
          "internalType": "address"
        }
      ],
      "anonymous": false
    },
    {
      "type": "error",
      "name": "AssetAlreadySupported",
      "inputs": []
    },
    {
      "type": "error",
      "name": "AssetNotSupported",
      "inputs": []
    },
    {
      "type": "error",
      "name": "BudgetMustBeGreaterThanZero",
      "inputs": []
    },
    {
      "type": "error",
      "name": "CannotRemoveCoreAssets",
      "inputs": []
    },
    {
      "type": "error",
      "name": "FeeMustBeGreaterThanZero",
      "inputs": []
    },
    {
      "type": "error",
      "name": "InsufficientBudget",
      "inputs": []
    },
    {
      "type": "error",
      "name": "InsufficientFees",
      "inputs": []
    },
    {
      "type": "error",
      "name": "InsufficientNativeBalance",
      "inputs": []
    },
    {
      "type": "error",
      "name": "InvalidAffiliateAddress",
      "inputs": []
    },
    {
      "type": "error",
      "name": "InvalidInitialization",
      "inputs": []
    },
    {
      "type": "error",
      "name": "InvalidWinnersProvided",
      "inputs": []
    },
    {
      "type": "error",
      "name": "InvalidYapRequestId",
      "inputs": []
    },
    {
      "type": "error",
      "name": "NativeTransferFailed",
      "inputs": []
    },
    {
      "type": "error",
      "name": "NoEthValueShouldBeSent",
      "inputs": []
    },
    {
      "type": "error",
      "name": "NoWinnersProvided",
      "inputs": []
    },
    {
      "type": "error",
      "name": "NotAdmin",
      "inputs": []
    },
    {
      "type": "error",
      "name": "NotInitializing",
      "inputs": []
    },
    {
      "type": "error",
      "name": "NotTheCreator",
      "inputs": []
    },
    {
      "type": "error",
      "name": "OnlyAdminsCanDistributeRewards",
      "inputs": []
    },
    {
      "type": "error",
      "name": "OwnableInvalidOwner",
      "inputs": [
        {
          "name": "owner",
          "type": "address",
          "internalType": "address"
        }
      ]
    },
    {
      "type": "error",
      "name": "OwnableUnauthorizedAccount",
      "inputs": [
        {
          "name": "account",
          "type": "address",
          "internalType": "address"
        }
      ]
    },
    {
      "type": "error",
      "name": "ReentrancyGuardReentrantCall",
      "inputs": []
    },
    {
      "type": "error",
      "name": "RewardMustBeGreaterThanZero",
      "inputs": []
    },
    {
      "type": "error",
      "name": "SafeERC20FailedOperation",
      "inputs": [
        {
          "name": "token",
          "type": "address",
          "internalType": "address"
        }
      ]
    },
    {
      "type": "error",
      "name": "YapRequestNotActive",
      "inputs": []
    },
    {
      "type": "error",
      "name": "YapRequestNotFound",
      "inputs": []
    }
  ],
  "bytecode": {
    "object": "0x6080806040523460aa575f5160206122155f395f51905f525460ff8160401c16609b576002600160401b03196001600160401b038216016049575b60405161216690816100af8239f35b6001600160401b0319166001600160401b039081175f5160206122155f395f51905f525581527fc7f505b2f371ae2175ee4913f4499e1f2633a7b5936321eed1cdaeb6115181d290602090a15f80603a565b63f92ee8a960e01b5f5260045ffd5b5f80fdfe6080806040526004361015610012575f80fd5b5f3560e01c90816312753b1314611c475750806315dae71c14611c2b5780631785f53c14611bc35780631c9024d3146119ec57806324d7806c146119af5780632acada4d14611932578063462d0b2e14611631578063464b4158146115f45780636b1426a41461157b5780637048027514611510578063715018a61461149357806375bcb9f4146113f657806379ba5097146113a85780638944b192146112295780638c3bba8a146111a25780638da5cb5b1461116e578063968dc5981461111c57806398cbcec514610e985780639ba372c214610d83578063a62de1cc14610995578063a827ba2714610763578063c78f68031461072b578063d3d3819314610700578063e30c3978146106cc578063f2fde38b146106485763fa0f3d441461013a575f80fd5b346106445760803660031901126106445760043560243567ffffffffffffffff81116106445761016e903690600401611d7b565b9060443567ffffffffffffffff81116106445761018f903690600401611d7b565b90606435908115158203610644576101a5611f6e565b335f52600460205260ff60405f20541615610635578415801561062d575b61061e5782850361061057855f52600260205260405f2091604051936101e885611d21565b8354855260018060a01b036001850154169260208601938452600285015495604081019687526003860154606082015260018060a01b03600487015416956080820196875260058101604051905f9080549061024382611dac565b80855291600181169081156105e957506001146105ac575b5050918161026f60069360ff950382611d3d565b60a08501520154169060c081019115158252511561059d57511561058e575f955f5b83811061056e575051861161055f57885f526002602052600260405f20016102ba878254611df9565b90555f5b88811061046457505050610353575b505060405192806040850160408652526060840192905f5b81811061032d57867f9fb24ebd5544779d3767bbc63a8dc99755551da4fc78af9735b463bb176c17a28780888860208301520390a260015f5160206120d15f395f51905f5255005b909193602080600192838060a01b0361034589611ca7565b1681520195019291016102e5565b855f52600260205285600260405f200154928361039d575b509150505f5260026020525f6002604082200155835f526002602052600660405f200160ff1981541690555f806102cd565b516001600160a01b0316806104255750505f8080808560018060a01b038651165af16103c7611e06565b50156104165785917f9c80a946d1155e387d3fdb40ebfc6973f2df3f44827577acc768d8b4953c674a915b51604080516001600160a01b0390921682526020820192909252a25f80858161036b565b633d2cec6f60e21b5f5260045ffd5b9161045f847f9c80a946d1155e387d3fdb40ebfc6973f2df3f44827577acc768d8b4953c674a9460018060a09896981b0384511690611fa6565b6103f2565b895f52600360205260405f2061048361047e838c8c611ebf565b611ecf565b815491600160401b83101561054b57826104a59160016104c995018155611de4565b81546001600160a01b0393841660039290921b91821b9390911b1916919091179055565b855188908a906001600160a01b03168061052057505f8080936104f861047e87849660018060a01b0394611ebf565b16610504868989611ebf565b35905af1610510611e06565b5015610416576001905b016102be565b61053461047e856105469460019796611ebf565b61053f848888611ebf565b3591611fa6565b61051a565b634e487b7160e01b5f52604160045260245ffd5b634dd23c8b60e01b5f5260045ffd5b966105876001916105808a8787611ebf565b3590611e35565b9701610291565b639419f98f60e01b5f5260045ffd5b63b0cadf0760e01b5f5260045ffd5b5f908152602081209092505b8183106105cf57505081016020018161026f61025b565b6001816020929493945483858801015201910191906105b8565b60ff191660208087019190915292151560051b8501909201925083915061026f905061025b565b626f491760e91b5f5260045ffd5b6305568ffd60e31b5f5260045ffd5b5082156101c3565b634c60237960e01b5f5260045ffd5b5f80fd5b3461064457602036600319011261064457610661611c7b565b610669611ee3565b5f5160206121115f395f51905f5280546001600160a01b0319166001600160a01b039283169081179091555f5160206120b15f395f51905f52549091167f38d16b8cac22d99fc7c124b9cd0de2d3fa1faef420bfe791d8c362d765e227005f80a3005b34610644575f366003190112610644575f5160206121115f395f51905f52546040516001600160a01b039091168152602090f35b3461064457602036600319011261064457602061072361071e611c7b565b611e42565b604051908152f35b34610644576020366003190112610644576001600160a01b0361074c611c7b565b165f526006602052602060405f2054604051908152f35b606036600319011261064457604435602435600435610780611f6e565b61078a8383611e35565b90805f52600260205260018060a01b03600460405f2001541690815f52600560205260ff60405f2054161561098657815f52600760205260405f2054841590811561097d575b8115610973575b5061096457805f52600260205260405f2093600185019360018060a01b0385541633036109555785541561059d5760ff6006870154161561058e578361092c5780341061091d578034116108f8575b506108f4935b835f52600660205260405f20610843888254611e35565b90557f69a777a57c4dcac647849a28a52c62a1c08b72d63dd2eef54ba0cc7f6c30c3db60606002880197610878858a54611e35565b8099556003810161088a8b8254611e35565b905554925460408051958652602086018b905285018790526001600160a01b031693a360015f5160206120d15f395f51905f5255604080519182526020820194909452928301939093523360608301526001600160a01b03909216608082015290819060a0820190565b0390f35b5f8080610906819434611df9565b335af1610911611e06565b50156104165786610826565b63dbc3a71f60e01b5f5260045ffd5b9334610946576109416108f495303387611fe9565b61082c565b639cec203560e01b5f5260045ffd5b63623e835560e11b5f5260045ffd5b6357971f1d60e01b5f5260045ffd5b90508310866107d7565b861591506107d0565b63981a2a2b60e01b5f5260045ffd5b60a0366003190112610644576064356001600160a01b038116906044359060243590600435848203610644576084359467ffffffffffffffff861161064457366023870112156106445785600401356109ed81611d5f565b966109fb6040519889611d3d565b818852366024838301011161064457815f92602460209301838b013788010152610a23611f6e565b805f52600560205260ff60405f2054161561098657610a428585611e35565b815f52600760205260405f20548515908115610d7a575b8115610d70575b506109645781610d5a5780341061091d57803411610d35575b505b5f5460018101809111610d21575f5560405195610a9787611d21565b8287523360208089019182526040808a0188815260608b018a815260808c0187815260a08d01878152600160c08f018181525f8c8152600298899052969096209e518f559651968e0180546001600160a01b039889166001600160a01b0319918216179091559351958e0195909555905160038d01555160048c0180549190951691161790925551805160058a019167ffffffffffffffff821161054b57610b3f8354611dac565b601f8111610cdc575b50602090601f8311600114610c4c579a879593837f45a59b9eac10b3db5df608180b067b79b585a283075f2598cff97aefce35560c96946006946108f49d9e9f5f92610c41575b50508160011b915f199060031b1c19161790555b019051151560ff80198354169116179055835f52600660205260405f20610bcb8a8254611e35565b9055610be260405191608083526080830190611cbb565b9360208201528760408201528860608201528033940390a360015f5160206120d15f395f51905f5255604080519182526020820194909452928301939093523360608301526001600160a01b03909216608082015290819060a0820190565b015190508f80610b8f565b90601f19831691845f52815f20925f5b818110610cc45750846006946108f49d9e9f948c9a98947f45a59b9eac10b3db5df608180b067b79b585a283075f2598cff97aefce35560c9a9860019510610cac575b505050811b019055610ba3565b01515f1960f88460031b161c191690558f8080610c9f565b92936020600181928786015181550195019301610c5c565b835f5260205f20601f840160051c81019160208510610d17575b601f0160051c01905b818110610d0c5750610b48565b5f8155600101610cff565b9091508190610cf6565b634e487b7160e01b5f52601160045260245ffd5b5f8080610d43819434611df9565b335af1610d4e611e06565b50156104165786610a79565b3461094657610d6b90303384611fe9565b610a7b565b9050811088610a60565b87159150610a59565b3461064457606036600319011261064457610d9c611c7b565b602435906044356001600160a01b0381169081900361064457610dbd611ee3565b610dc5611f6e565b805f52600660205260405f2054831161055f57805f52600660205260405f20610def848254611df9565b905580610e63575f808080866001600160a01b0387165af1610e0f611e06565b5015610416577f87044da2612407bc001bb0985725dcc651a0dc71eaabfd1d7e8617ca85a8c19c916040915b825194855260208501526001600160a01b031692a260015f5160206120d15f395f51905f5255005b8181610e93857f87044da2612407bc001bb0985725dcc651a0dc71eaabfd1d7e8617ca85a8c19c95604095611fa6565b610e3b565b3461064457606036600319011261064457600435610eb4611c91565b604435610ebf611f6e565b335f52600460205260ff60405f2054161561063557801561110d576001600160a01b03821680156110fe57835f52600260205260405f20604051610f0281611d21565b8154815260018060a01b036001830154166020820152600282015460408201526003820154906060810191825260018060a01b03600484015416926080820193845260058101604051905f90805490610f5a82611dac565b80855291600181169081156110d7575060011461109a575b50509181610f8660069360ff950382611d3d565b60a0850152015416151560c0820152511561059d5751831161108b57845f526002602052600360405f2001610fbc848254611df9565b905560018060a01b038151165f52600660205260405f20610fde848254611df9565b9055516001600160a01b03168061105757505f80808481945af1611000611e06565b5015610416577f98701faa3f2f1270faf97e612ef209b055944d018b624726f35b036de169312c915b604080516001600160a01b039290921682526020820192909252a260015f5160206120d15f395f51905f5255005b839150827f98701faa3f2f1270faf97e612ef209b055944d018b624726f35b036de169312c9461108692611fa6565b611029565b638d53e55360e01b5f5260045ffd5b5f908152602081209092505b8183106110bd575050810160200181610f86610f72565b6001816020929493945483858801015201910191906110a6565b60ff191660208087019190915292151560051b85019092019250839150610f869050610f72565b6304483f3f60e31b5f5260045ffd5b63cc3440c960e01b5f5260045ffd5b3461064457602036600319011261064457600435611138611ee3565b801561059d576020817f6813975ec90107b6af911fce6b78c51a9634d4019096c7e0be97305b38d9e6ba925f55604051908152a1005b34610644575f366003190112610644575f5160206120b15f395f51905f52546040516001600160a01b039091168152602090f35b34610644576040366003190112610644576111bb611c7b565b602435906111c7611ee3565b6001600160a01b03165f8181526005602052604090205490919060ff16156109865780156109645760207f752376a7b9ab25603152a064d1999ffee4cc33e72d62a555135fc56ab2bec30891835f52600782528060405f2055604051908152a2005b3461064457604036600319011261064457611242611c7b565b60243561124d611ee3565b6001600160a01b0382165f8181526005602052604090205490929060ff16611399578115610964575f838152600560209081526040808320805460ff19166001908117909155600790925282208490555480825b828110611330575b505050156112e0575b5060207f66ace591f7c88075839f4a0246420d0cc8a34cbe9a924cd0e1ca63c336344f4b91604051908152a2005b60015491600160401b83101561054b576113296020926104a58560017f66ace591f7c88075839f4a0246420d0cc8a34cbe9a924cd0e1ca63c336344f4b97016001556001611de4565b91506112b2565b818110156113855760015f527fb10e2d527612073b26eecdfd717e6a320cf44b4afac2b0732d9fcbe2b7fa0cf68101546001600160a01b03168714611377576001016112a1565b5050505060018480806112a9565b634e487b7160e01b5f52603260045260245ffd5b63b1093e5b60e01b5f5260045ffd5b34610644575f366003190112610644575f5160206121115f395f51905f5254336001600160a01b03909116036113e3576113e133611f03565b005b63118cdaa760e01b5f523360045260245ffd5b346106445760203660031901126106445761140f611c7b565b611417611ee3565b6001600160a01b03165f8181526005602052604090205460ff161561098657801561148457805f52600560205260405f2060ff198154169055805f5260076020525f60408120557f37803e2125c48ee96c38ddf04e826daf335b0e1603579040fd275aba6d06b6fc5f80a2005b63c5343a2960e01b5f5260045ffd5b34610644575f366003190112610644576114ab611ee3565b5f5160206121115f395f51905f5280546001600160a01b03199081169091555f5160206120b15f395f51905f52805491821690555f906001600160a01b03167f8be0079c531659141344cd1fd0a4f28419497f9722a3daafe3b4186f6b6457e08280a3005b3461064457602036600319011261064457611529611c7b565b611531611ee3565b6001600160a01b03165f818152600460205260408120805460ff191660011790553391907fbf3f493c772c8c283fd124432c2d0f539ab343faa04258fe88e52912d36b102b9080a3005b34610644576020366003190112610644576004355f52600360205260405f206040519081602082549182815201915f5260205f20905f5b8181106115d5576108f4856115c981870382611d3d565b60405191829182611cdf565b82546001600160a01b03168452602090930192600192830192016115b2565b34610644576020366003190112610644576001600160a01b03611615611c7b565b165f526005602052602060ff60405f2054166040519015158152f35b346106445760403660031901126106445760043567ffffffffffffffff811161064457366023820112156106445780600401359067ffffffffffffffff821161054b578160051b604051926116896020830185611d3d565b8352602460208401918301019136831161064457602401905b82821061191a57836116b2611c91565b905f5160206120f15f395f51905f525460ff8160401c16159267ffffffffffffffff821680159081611912575b6001149081611908575b1590816118ff575b506118f05767ffffffffffffffff1982166001175f5160206120f15f395f51905f525561172c91846118c4575b5061172761202d565b611f03565b61173461202d565b61173c61202d565b60015f5160206120d15f395f51905f528190555f8080553381526004602090815260408220805460ff1990811685179091559180527f05b8ccbb9d4d8fb16ea74ce3c29a41f1b461fbdaff4714a0d9a8eb05499746bc8054909216831790915560079052620186a07f6d5257204ebe7d88fd91ae87941cb2dd9d8062b64ae5a2bd2d28ec40b9fbf6df5554600160401b81101561054b578060016117e592016001556001611de4565b81549060018060a01b039060031b1b191690555f5b815181101561183257600190818060a01b0360208260051b85010151165f52600460205260405f208260ff19825416179055016117fa565b506118647fe58d4b3592c74e580b584cc31679cad3eefea91577f47aabd1764352d4b4901b9160405191829182611cdf565b0390a161186d57005b68ff0000000000000000195f5160206120f15f395f51905f5254165f5160206120f15f395f51905f52557fc7f505b2f371ae2175ee4913f4499e1f2633a7b5936321eed1cdaeb6115181d2602060405160018152a1005b68ffffffffffffffffff191668010000000000000001175f5160206120f15f395f51905f52558461171e565b63f92ee8a960e01b5f5260045ffd5b905015856116f1565b303b1591506116e9565b8591506116df565b6020809161192784611ca7565b8152019101906116a2565b34610644575f3660031901126106445760405180602060015491828152019060015f527fb10e2d527612073b26eecdfd717e6a320cf44b4afac2b0732d9fcbe2b7fa0cf6905f5b818110611990576108f4856115c981870382611d3d565b82546001600160a01b0316845260209093019260019283019201611979565b34610644576020366003190112610644576001600160a01b036119d0611c7b565b165f526004602052602060ff60405f2054166040519015158152f35b34610644576020366003190112610644575f60c0604051611a0c81611d21565b828152826020820152826040820152826060820152826080820152606060a082015201526004355f52600260205260405f20604051611a4a81611d21565b8154815260018060a01b0360018301541691602082019283526002810154604083019081526003820154916060840192835260018060a01b0360048201541660808501908152600582019160405180935f90805490611aa882611dac565b8085529160018116908115611b9b5750600114611b5b575b505091611ad360069260ff940386611d3d565b60a088019485520154169360c086019415158552855115611b4c57611b3f936040519788976020895251602089015260018060a01b03905116604088015251606087015251608086015260018060a01b0390511660a08501525160e060c0850152610100840190611cbb565b9051151560e08301520390f35b6311d6c75b60e31b5f5260045ffd5b5f908152602081209092505b818310611b7f5750508101602001611ad36006611ac0565b6020919350806001915483858a01015201910190918592611b67565b60ff191660208087019190915292151560051b85019092019250611ad3915060069050611ac0565b3461064457602036600319011261064457611bdc611c7b565b611be4611ee3565b6001600160a01b03165f818152600460205260408120805460ff191690553391907fdb9d5d31320daf5bc7181d565b6da4d12e30f0f4d5aa324a992426c14a1d19ce9080a3005b34610644575f3660031901126106445760205f54604051908152f35b34610644576020366003190112610644576020906001600160a01b03611c6b611c7b565b165f526007825260405f20548152f35b600435906001600160a01b038216820361064457565b602435906001600160a01b038216820361064457565b35906001600160a01b038216820361064457565b805180835260209291819084018484015e5f828201840152601f01601f1916010190565b60206040818301928281528451809452019201905f5b818110611d025750505090565b82516001600160a01b0316845260209384019390920191600101611cf5565b60e0810190811067ffffffffffffffff82111761054b57604052565b90601f8019910116810190811067ffffffffffffffff82111761054b57604052565b67ffffffffffffffff811161054b57601f01601f191660200190565b9181601f840112156106445782359167ffffffffffffffff8311610644576020808501948460051b01011161064457565b90600182811c92168015611dda575b6020831014611dc657565b634e487b7160e01b5f52602260045260245ffd5b91607f1691611dbb565b8054821015611385575f5260205f2001905f90565b91908203918211610d2157565b3d15611e30573d90611e1782611d5f565b91611e256040519384611d3d565b82523d5f602084013e565b606090565b91908201809211610d2157565b6001600160a01b03168015611eba576020602491604051928380926370a0823160e01b82523060048301525afa908115611eaf575f91611e80575090565b90506020813d602011611ea7575b81611e9b60209383611d3d565b81010312610644575190565b3d9150611e8e565b6040513d5f823e3d90fd5b504790565b91908110156113855760051b0190565b356001600160a01b03811681036106445790565b5f5160206120b15f395f51905f52546001600160a01b031633036113e357565b5f5160206121115f395f51905f5280546001600160a01b03199081169091555f5160206120b15f395f51905f5280549182166001600160a01b0393841690811790915591167f8be0079c531659141344cd1fd0a4f28419497f9722a3daafe3b4186f6b6457e05f80a3565b60025f5160206120d15f395f51905f525414611f975760025f5160206120d15f395f51905f5255565b633ee5aeb560e01b5f5260045ffd5b60405163a9059cbb60e01b60208201526001600160a01b03929092166024830152604480830193909352918152611fe791611fe2606483611d3d565b612058565b565b6040516323b872dd60e01b60208201526001600160a01b039283166024820152929091166044830152606480830193909352918152611fe791611fe2608483611d3d565b60ff5f5160206120f15f395f51905f525460401c161561204957565b631afcd79f60e31b5f5260045ffd5b905f602091828151910182855af115611eaf575f513d6120a757506001600160a01b0381163b155b6120875750565b635274afe760e01b5f9081526001600160a01b0391909116600452602490fd5b6001141561208056fe9016d09d72d40fdae2fd8ceac6b6234c7706214fd39c1cd1e609a0528c1993009b779b17422d0df92223018b32b4d1fa46e071723d6817e2486d003becc55f00f0c57e16840df040f15088dc2f81fe391c3923bec73e23a9662efc9c229c6a00237e158222e3e6968b72b9db0d8043aacf074ad9f650f0d1606b4d82ee432c00a2646970667358221220cc00ea8f29b2a5f0013333691588577a3c36fe3bba2e2318d142f2a5e96d04d064736f6c634300081c0033f0c57e16840df040f15088dc2f81fe391c3923bec73e23a9662efc9c229c6a00",
    "linkReferences": {}
  },
  "methodIdentifiers": {
    "acceptOwnership()": "79ba5097",
    "addAdmin(address)": "70480275",
    "addAssetSupport(address,uint256)": "8944b192",
    "createRequest(uint256,uint256,uint256,address,string)": "a62de1cc",
    "getAllAssets()": "2acada4d",
    "getFeeBalance(address)": "c78f6803",
    "getMinimumBudget(address)": "12753b13",
    "getTotalBalance(address)": "d3d38193",
    "getTotalYapRequests()": "15dae71c",
    "getWinners(uint256)": "6b1426a4",
    "getYapRequest(uint256)": "1c9024d3",
    "initialize(address[],address)": "462d0b2e",
    "isAdmin(address)": "24d7806c",
    "isAssetSupported(address)": "464b4158",
    "owner()": "8da5cb5b",
    "pendingOwner()": "e30c3978",
    "removeAdmin(address)": "1785f53c",
    "removeAssetSupport(address)": "75bcb9f4",
    "renounceOwnership()": "715018a6",
    "resetYapRequestCount(uint256)": "968dc598",
    "rewardAffiliateFromFees(uint256,address,uint256)": "98cbcec5",
    "rewardYapWinners(uint256,address[],uint256[],bool)": "fa0f3d44",
    "topUpRequest(uint256,uint256,uint256)": "a827ba27",
    "transferOwnership(address)": "f2fde38b",
    "updateAssetRequirements(address,uint256)": "8c3bba8a",
    "withdrawFees(address,uint256,address)": "9ba372c2"
  },
  "id": 37
}