{"abi":[{"type":"constructor","inputs":[{"name":"_logicImplementation","type":"address","internalType":"address"},{"name":"_admins","type":"address[]","internalType":"address[]"}],"stateMutability":"nonpayable"},{"type":"fallback","stateMutability":"payable"},{"type":"receive","stateMutability":"payable"},{"type":"function","name":"_proxyAdmin","inputs":[],"outputs":[{"name":"admin_","type":"address","internalType":"address"}],"stateMutability":"view"},{"type":"function","name":"get_implementation","inputs":[],"outputs":[{"name":"","type":"address","internalType":"address"}],"stateMutability":"view"},{"type":"function","name":"upgradeTo","inputs":[{"name":"_newImplementation","type":"address","internalType":"address"}],"outputs":[],"stateMutability":"nonpayable"},{"type":"event","name":"Upgraded","inputs":[{"name":"implementation","type":"address","indexed":true,"internalType":"address"}],"anonymous":false},{"type":"error","name":"ImplementationRequired","inputs":[]},{"type":"error","name":"InitializationFailed","inputs":[]}],"bytecode":{"object":"0x608080604052346102015761046e803803809161001c8285610205565b833981016040828203126102015761003382610228565b602083015190926001600160401b038211610201570181601f82011215610201578051916001600160401b0383116101a2578260051b916040519361007b6020850186610205565b845260208401906020829482010192831161020157602001905b8282106101e9575050506001600160a01b038316156101da57827f360894a13ba1a3210667c828492db98dca3e2076cc3735a920a3ca505d382bbc55337fb53127684a568b3173ae13b9f8a6016e243e63b6e8ee1178d6a717850b5d610355604051906020820192632316859760e11b8452606483019060406024850152518091526084830191905f5b8181106101bb575f80888888610144818a33604483015203601f198101835282610205565b51915af43d156101b6573d6001600160401b0381116101a25760405190610175601f8201601f191660200183610205565b81525f60203d92013e5b1561019357604051610231908161023d8239f35b630337323560e31b5f5260045ffd5b634e487b7160e01b5f52604160045260245ffd5b61017f565b82516001600160a01b031684526020938401939092019160010161011f565b63016ec23b60e41b5f5260045ffd5b602080916101f684610228565b815201910190610095565b5f80fd5b601f909101601f19168101906001600160401b038211908210176101a257604052565b51906001600160a01b03821682036102015756fe60806040526004361015610018575b366101bd576101bd565b5f3560e01c80633659cfe614610047578063c781c668146100425763d36a72d80361000e57610176565b61012f565b3461012b57602036600319011261012b576004356001600160a01b0381169081810361012b577fb53127684a568b3173ae13b9f8a6016e243e63b6e8ee1178d6a717850b5d6103546001600160a01b031633036100fb5781156100ec577f360894a13ba1a3210667c828492db98dca3e2076cc3735a920a3ca505d382bbc557fbc7cd75a20ee27fd9adebab32041f755214dbc6bffa90cc0225b39da2e5c2d3b5f80a2005b63016ec23b60e41b5f5260045ffd5b62461bcd60e51b6080526020608452600f60a4526e2737ba10383937bc3c9030b236b4b760891b60c45260646080fd5b5f80fd5b3461012b575f36600319011261012b577f360894a13ba1a3210667c828492db98dca3e2076cc3735a920a3ca505d382bbc546040516001600160a01b039091168152602090f35b3461012b575f36600319011261012b577fb53127684a568b3173ae13b9f8a6016e243e63b6e8ee1178d6a717850b5d6103546040516001600160a01b039091168152602090f35b5f807f360894a13ba1a3210667c828492db98dca3e2076cc3735a920a3ca505d382bbc54368280378136915af43d5f803e156101f7573d5ff35b3d5ffdfea2646970667358221220bf4885e9434ff33b69991680afbfda1e8a9408a47eab771480c917127955b05e64736f6c634300081c0033","linkReferences":{}},"methodIdentifiers":{"_proxyAdmin()":"d36a72d8","get_implementation()":"c781c668","upgradeTo(address)":"3659cfe6"},"id":38}