{"abi":[{"type":"constructor","inputs":[{"name":"_logicImplementation","type":"address","internalType":"address"},{"name":"_admins","type":"address[]","internalType":"address[]"},{"name":"_currentYapRequestCount","type":"uint256","internalType":"uint256"}],"stateMutability":"nonpayable"},{"type":"fallback","stateMutability":"payable"},{"type":"receive","stateMutability":"payable"},{"type":"function","name":"_proxyAdmin","inputs":[],"outputs":[{"name":"admin_","type":"address","internalType":"address"}],"stateMutability":"view"},{"type":"function","name":"get_implementation","inputs":[],"outputs":[{"name":"","type":"address","internalType":"address"}],"stateMutability":"view"},{"type":"function","name":"upgradeTo","inputs":[{"name":"_newImplementation","type":"address","internalType":"address"}],"outputs":[],"stateMutability":"nonpayable"},{"type":"event","name":"Upgraded","inputs":[{"name":"implementation","type":"address","indexed":true,"internalType":"address"}],"anonymous":false},{"type":"error","name":"ImplementationRequired","inputs":[]},{"type":"error","name":"InitializationFailed","inputs":[]}],"bytecode":{"object":"0x6080806040523461020e5761047b803803809161001c8285610212565b8339810160608282031261020e5761003382610235565b60208301519091906001600160401b03811161020e5783019281601f8501121561020e578351916001600160401b0383116101af578260051b946040519361007e6020880186610212565b845260208401906020829782010192831161020e57602001905b8282106101f657505050604001516001600160a01b038316156101e757827f360894a13ba1a3210667c828492db98dca3e2076cc3735a920a3ca505d382bbc55337fb53127684a568b3173ae13b9f8a6016e243e63b6e8ee1178d6a717850b5d6103556040519060208201926372483bf960e01b84526084830190606060248501525180915260a4830195905f5b8181106101c8575f80888888610151818e8b604483015233606483015203601f198101835282610212565b51915af43d156101c3573d6001600160401b0381116101af5760405190610182601f8201601f191660200183610212565b81525f60203d92013e5b156101a057604051610231908161024a8239f35b630337323560e31b5f5260045ffd5b634e487b7160e01b5f52604160045260245ffd5b61018c565b82516001600160a01b0316885260209788019790920191600101610126565b63016ec23b60e41b5f5260045ffd5b6020809161020384610235565b815201910190610098565b5f80fd5b601f909101601f19168101906001600160401b038211908210176101af57604052565b51906001600160a01b038216820361020e5756fe60806040526004361015610018575b366101bd576101bd565b5f3560e01c80633659cfe614610047578063c781c668146100425763d36a72d80361000e57610176565b61012f565b3461012b57602036600319011261012b576004356001600160a01b0381169081810361012b577fb53127684a568b3173ae13b9f8a6016e243e63b6e8ee1178d6a717850b5d6103546001600160a01b031633036100fb5781156100ec577f360894a13ba1a3210667c828492db98dca3e2076cc3735a920a3ca505d382bbc557fbc7cd75a20ee27fd9adebab32041f755214dbc6bffa90cc0225b39da2e5c2d3b5f80a2005b63016ec23b60e41b5f5260045ffd5b62461bcd60e51b6080526020608452600f60a4526e2737ba10383937bc3c9030b236b4b760891b60c45260646080fd5b5f80fd5b3461012b575f36600319011261012b577f360894a13ba1a3210667c828492db98dca3e2076cc3735a920a3ca505d382bbc546040516001600160a01b039091168152602090f35b3461012b575f36600319011261012b577fb53127684a568b3173ae13b9f8a6016e243e63b6e8ee1178d6a717850b5d6103546040516001600160a01b039091168152602090f35b5f807f360894a13ba1a3210667c828492db98dca3e2076cc3735a920a3ca505d382bbc54368280378136915af43d5f803e156101f7573d5ff35b3d5ffdfea26469706673582212202201ff612c5e559f99064bf94f69415a50254e60c48a732824d408eae20af81a64736f6c634300081c0033","linkReferences":{}},"methodIdentifiers":{"_proxyAdmin()":"d36a72d8","get_implementation()":"c781c668","upgradeTo(address)":"3659cfe6"},"id":54}