{
  "abi": [
    {
      "type": "constructor",
      "inputs": [],
      "stateMutability": "nonpayable"
    },
    {
      "type": "function",
      "name": "acceptOwnership",
      "inputs": [],
      "outputs": [],
      "stateMutability": "nonpayable"
    },
    {
      "type": "function",
      "name": "addAdmin",
      "inputs": [
        {
          "name": "_admin",
          "type": "address",
          "internalType": "address"
        }
      ],
      "outputs": [],
      "stateMutability": "nonpayable"
    },
    {
      "type": "function",
      "name": "addAssetSupport",
      "inputs": [
        {
          "name": "asset",
          "type": "address",
          "internalType": "address"
        },
        {
          "name": "minimumBudget",
          "type": "uint256",
          "internalType": "uint256"
        }
      ],
      "outputs": [],
      "stateMutability": "nonpayable"
    },
    {
      "type": "function",
      "name": "createRequest",
      "inputs": [
        {
          "name": "_budget",
          "type": "uint256",
          "internalType": "uint256"
        },
        {
          "name": "_fee",
          "type": "uint256",
          "internalType": "uint256"
        },
        {
          "name": "_asset",
          "type": "address",
          "internalType": "address"
        },
        {
          "name": "_jobId",
          "type": "string",
          "internalType": "string"
        }
      ],
      "outputs": [
        {
          "name": "",
          "type": "uint256",
          "internalType": "uint256"
        },
        {
          "name": "",
          "type": "uint256",
          "internalType": "uint256"
        },
        {
          "name": "",
          "type": "uint256",
          "internalType": "uint256"
        },
        {
          "name": "",
          "type": "address",
          "internalType": "address"
        },
        {
          "name": "",
          "type": "address",
          "internalType": "address"
        }
      ],
      "stateMutability": "payable"
    },
    {
      "type": "function",
      "name": "getAllAssets",
      "inputs": [],
      "outputs": [
        {
          "name": "",
          "type": "address[]",
          "internalType": "address[]"
        }
      ],
      "stateMutability": "view"
    },
    {
      "type": "function",
      "name": "getFeeBalance",
      "inputs": [
        {
          "name": "asset",
          "type": "address",
          "internalType": "address"
        }
      ],
      "outputs": [
        {
          "name": "",
          "type": "uint256",
          "internalType": "uint256"
        }
      ],
      "stateMutability": "view"
    },
    {
      "type": "function",
      "name": "getMinimumBudget",
      "inputs": [
        {
          "name": "asset",
          "type": "address",
          "internalType": "address"
        }
      ],
      "outputs": [
        {
          "name": "",
          "type": "uint256",
          "internalType": "uint256"
        }
      ],
      "stateMutability": "view"
    },
    {
      "type": "function",
      "name": "getTotalBalance",
      "inputs": [
        {
          "name": "asset",
          "type": "address",
          "internalType": "address"
        }
      ],
      "outputs": [
        {
          "name": "",
          "type": "uint256",
          "internalType": "uint256"
        }
      ],
      "stateMutability": "view"
    },
    {
      "type": "function",
      "name": "getTotalYapRequests",
      "inputs": [],
      "outputs": [
        {
          "name": "",
          "type": "uint256",
          "internalType": "uint256"
        }
      ],
      "stateMutability": "view"
    },
    {
      "type": "function",
      "name": "getWinners",
      "inputs": [
        {
          "name": "yapRequestId",
          "type": "uint256",
          "internalType": "uint256"
        }
      ],
      "outputs": [
        {
          "name": "",
          "type": "address[]",
          "internalType": "address[]"
        }
      ],
      "stateMutability": "view"
    },
    {
      "type": "function",
      "name": "getYapRequest",
      "inputs": [
        {
          "name": "yapRequestId",
          "type": "uint256",
          "internalType": "uint256"
        }
      ],
      "outputs": [
        {
          "name": "",
          "type": "tuple",
          "internalType": "struct EscrowLogic.YapRequest",
          "components": [
            {
              "name": "yapId",
              "type": "uint256",
              "internalType": "uint256"
            },
            {
              "name": "creator",
              "type": "address",
              "internalType": "address"
            },
            {
              "name": "budget",
              "type": "uint256",
              "internalType": "uint256"
            },
            {
              "name": "fee",
              "type": "uint256",
              "internalType": "uint256"
            },
            {
              "name": "asset",
              "type": "address",
              "internalType": "address"
            },
            {
              "name": "jobId",
              "type": "string",
              "internalType": "string"
            },
            {
              "name": "isActive",
              "type": "bool",
              "internalType": "bool"
            }
          ]
        }
      ],
      "stateMutability": "view"
    },
    {
      "type": "function",
      "name": "initialize",
      "inputs": [
        {
          "name": "_admins",
          "type": "address[]",
          "internalType": "address[]"
        },
        {
          "name": "_currentYapRequestCount",
          "type": "uint256",
          "internalType": "uint256"
        },
        {
          "name": "initialOwner",
          "type": "address",
          "internalType": "address"
        }
      ],
      "outputs": [],
      "stateMutability": "nonpayable"
    },
    {
      "type": "function",
      "name": "isAdmin",
      "inputs": [
        {
          "name": "_address",
          "type": "address",
          "internalType": "address"
        }
      ],
      "outputs": [
        {
          "name": "",
          "type": "bool",
          "internalType": "bool"
        }
      ],
      "stateMutability": "view"
    },
    {
      "type": "function",
      "name": "isAssetSupported",
      "inputs": [
        {
          "name": "asset",
          "type": "address",
          "internalType": "address"
        }
      ],
      "outputs": [
        {
          "name": "",
          "type": "bool",
          "internalType": "bool"
        }
      ],
      "stateMutability": "view"
    },
    {
      "type": "function",
      "name": "owner",
      "inputs": [],
      "outputs": [
        {
          "name": "",
          "type": "address",
          "internalType": "address"
        }
      ],
      "stateMutability": "view"
    },
    {
      "type": "function",
      "name": "pendingOwner",
      "inputs": [],
      "outputs": [
        {
          "name": "",
          "type": "address",
          "internalType": "address"
        }
      ],
      "stateMutability": "view"
    },
    {
      "type": "function",
      "name": "removeAdmin",
      "inputs": [
        {
          "name": "_admin",
          "type": "address",
          "internalType": "address"
        }
      ],
      "outputs": [],
      "stateMutability": "nonpayable"
    },
    {
      "type": "function",
      "name": "removeAssetSupport",
      "inputs": [
        {
          "name": "asset",
          "type": "address",
          "internalType": "address"
        }
      ],
      "outputs": [],
      "stateMutability": "nonpayable"
    },
    {
      "type": "function",
      "name": "renounceOwnership",
      "inputs": [],
      "outputs": [],
      "stateMutability": "nonpayable"
    },
    {
      "type": "function",
      "name": "resetYapRequestCount",
      "inputs": [
        {
          "name": "newYapRequstCount",
          "type": "uint256",
          "internalType": "uint256"
        }
      ],
      "outputs": [],
      "stateMutability": "nonpayable"
    },
    {
      "type": "function",
      "name": "rewardAffiliateFromFees",
      "inputs": [
        {
          "name": "yapRequestId",
          "type": "uint256",
          "internalType": "uint256"
        },
        {
          "name": "affiliate",
          "type": "address",
          "internalType": "address"
        },
        {
          "name": "reward",
          "type": "uint256",
          "internalType": "uint256"
        }
      ],
      "outputs": [],
      "stateMutability": "nonpayable"
    },
    {
      "type": "function",
      "name": "rewardYapWinners",
      "inputs": [
        {
          "name": "yapRequestId",
          "type": "uint256",
          "internalType": "uint256"
        },
        {
          "name": "winners",
          "type": "address[]",
          "internalType": "address[]"
        },
        {
          "name": "winnersRewards",
          "type": "uint256[]",
          "internalType": "uint256[]"
        },
        {
          "name": "isLastBatch",
          "type": "bool",
          "internalType": "bool"
        }
      ],
      "outputs": [],
      "stateMutability": "nonpayable"
    },
    {
      "type": "function",
      "name": "topUpRequest",
      "inputs": [
        {
          "name": "yapRequestId",
          "type": "uint256",
          "internalType": "uint256"
        },
        {
          "name": "additionalBudget",
          "type": "uint256",
          "internalType": "uint256"
        },
        {
          "name": "additionalFee",
          "type": "uint256",
          "internalType": "uint256"
        }
      ],
      "outputs": [
        {
          "name": "",
          "type": "uint256",
          "internalType": "uint256"
        },
        {
          "name": "",
          "type": "uint256",
          "internalType": "uint256"
        },
        {
          "name": "",
          "type": "uint256",
          "internalType": "uint256"
        },
        {
          "name": "",
          "type": "address",
          "internalType": "address"
        },
        {
          "name": "",
          "type": "address",
          "internalType": "address"
        }
      ],
      "stateMutability": "payable"
    },
    {
      "type": "function",
      "name": "transferOwnership",
      "inputs": [
        {
          "name": "newOwner",
          "type": "address",
          "internalType": "address"
        }
      ],
      "outputs": [],
      "stateMutability": "nonpayable"
    },
    {
      "type": "function",
      "name": "updateAssetRequirements",
      "inputs": [
        {
          "name": "asset",
          "type": "address",
          "internalType": "address"
        },
        {
          "name": "minimumBudget",
          "type": "uint256",
          "internalType": "uint256"
        }
      ],
      "outputs": [],
      "stateMutability": "nonpayable"
    },
    {
      "type": "function",
      "name": "withdrawFees",
      "inputs": [
        {
          "name": "to",
          "type": "address",
          "internalType": "address"
        },
        {
          "name": "amount",
          "type": "uint256",
          "internalType": "uint256"
        },
        {
          "name": "asset",
          "type": "address",
          "internalType": "address"
        }
      ],
      "outputs": [],
      "stateMutability": "nonpayable"
    },
    {
      "type": "event",
      "name": "AdminAdded",
      "inputs": [
        {
          "name": "admin",
          "type": "address",
          "indexed": true,
          "internalType": "address"
        },
        {
          "name": "addedBy",
          "type": "address",
          "indexed": true,
          "internalType": "address"
        }
      ],
      "anonymous": false
    },
    {
      "type": "event",
      "name": "AdminRemoved",
      "inputs": [
        {
          "name": "admin",
          "type": "address",
          "indexed": true,
          "internalType": "address"
        },
        {
          "name": "removedBy",
          "type": "address",
          "indexed": true,
          "internalType": "address"
        }
      ],
      "anonymous": false
    },
    {
      "type": "event",
      "name": "AffiliateRewardFromFees",
      "inputs": [
        {
          "name": "yapRequestId",
          "type": "uint256",
          "indexed": true,
          "internalType": "uint256"
        },
        {
          "name": "affiliate",
          "type": "address",
          "indexed": false,
          "internalType": "address"
        },
        {
          "name": "reward",
          "type": "uint256",
          "indexed": false,
          "internalType": "uint256"
        }
      ],
      "anonymous": false
    },
    {
      "type": "event",
      "name": "AssetAdded",
      "inputs": [
        {
          "name": "asset",
          "type": "address",
          "indexed": true,
          "internalType": "address"
        },
        {
          "name": "minimumBudget",
          "type": "uint256",
          "indexed": false,
          "internalType": "uint256"
        }
      ],
      "anonymous": false
    },
    {
      "type": "event",
      "name": "AssetRemoved",
      "inputs": [
        {
          "name": "asset",
          "type": "address",
          "indexed": true,
          "internalType": "address"
        }
      ],
      "anonymous": false
    },
    {
      "type": "event",
      "name": "AssetUpdated",
      "inputs": [
        {
          "name": "asset",
          "type": "address",
          "indexed": true,
          "internalType": "address"
        },
        {
          "name": "minimumBudget",
          "type": "uint256",
          "indexed": false,
          "internalType": "uint256"
        }
      ],
      "anonymous": false
    },
    {
      "type": "event",
      "name": "Claimed",
      "inputs": [
        {
          "name": "yapId",
          "type": "uint256",
          "indexed": true,
          "internalType": "uint256"
        },
        {
          "name": "winner",
          "type": "address",
          "indexed": false,
          "internalType": "address"
        },
        {
          "name": "amount",
          "type": "uint256",
          "indexed": false,
          "internalType": "uint256"
        }
      ],
      "anonymous": false
    },
    {
      "type": "event",
      "name": "CreatorRefunded",
      "inputs": [
        {
          "name": "yapRequestId",
          "type": "uint256",
          "indexed": true,
          "internalType": "uint256"
        },
        {
          "name": "creator",
          "type": "address",
          "indexed": false,
          "internalType": "address"
        },
        {
          "name": "budgetLeft",
          "type": "uint256",
          "indexed": false,
          "internalType": "uint256"
        }
      ],
      "anonymous": false
    },
    {
      "type": "event",
      "name": "FeesWithdrawn",
      "inputs": [
        {
          "name": "to",
          "type": "address",
          "indexed": true,
          "internalType": "address"
        },
        {
          "name": "amount",
          "type": "uint256",
          "indexed": false,
          "internalType": "uint256"
        },
        {
          "name": "asset",
          "type": "address",
          "indexed": false,
          "internalType": "address"
        }
      ],
      "anonymous": false
    },
    {
      "type": "event",
      "name": "Initialized",
      "inputs": [
        {
          "name": "version",
          "type": "uint64",
          "indexed": false,
          "internalType": "uint64"
        }
      ],
      "anonymous": false
    },
    {
      "type": "event",
      "name": "Initialized",
      "inputs": [
        {
          "name": "admins",
          "type": "address[]",
          "indexed": false,
          "internalType": "address[]"
        }
      ],
      "anonymous": false
    },
    {
      "type": "event",
      "name": "MinimumBudgetReset",
      "inputs": [
        {
          "name": "newMinimumBudget",
          "type": "uint256",
          "indexed": false,
          "internalType": "uint256"
        }
      ],
      "anonymous": false
    },
    {
      "type": "event",
      "name": "MinimumFeeReset",
      "inputs": [
        {
          "name": "newMinimumFee",
          "type": "uint256",
          "indexed": false,
          "internalType": "uint256"
        }
      ],
      "anonymous": false
    },
    {
      "type": "event",
      "name": "OwnershipTransferStarted",
      "inputs": [
        {
          "name": "previousOwner",
          "type": "address",
          "indexed": true,
          "internalType": "address"
        },
        {
          "name": "newOwner",
          "type": "address",
          "indexed": true,
          "internalType": "address"
        }
      ],
      "anonymous": false
    },
    {
      "type": "event",
      "name": "OwnershipTransferred",
      "inputs": [
        {
          "name": "previousOwner",
          "type": "address",
          "indexed": true,
          "internalType": "address"
        },
        {
          "name": "newOwner",
          "type": "address",
          "indexed": true,
          "internalType": "address"
        }
      ],
      "anonymous": false
    },
    {
      "type": "event",
      "name": "RewardsDistributed",
      "inputs": [
        {
          "name": "yapRequestId",
          "type": "uint256",
          "indexed": true,
          "internalType": "uint256"
        },
        {
          "name": "winners",
          "type": "address[]",
          "indexed": false,
          "internalType": "address[]"
        },
        {
          "name": "totalReward",
          "type": "uint256",
          "indexed": false,
          "internalType": "uint256"
        }
      ],
      "anonymous": false
    },
    {
      "type": "event",
      "name": "YapRequestCountReset",
      "inputs": [
        {
          "name": "newYapRequestCount",
          "type": "uint256",
          "indexed": false,
          "internalType": "uint256"
        }
      ],
      "anonymous": false
    },
    {
      "type": "event",
      "name": "YapRequestCreated",
      "inputs": [
        {
          "name": "yapId",
          "type": "uint256",
          "indexed": true,
          "internalType": "uint256"
        },
        {
          "name": "jobId",
          "type": "string",
          "indexed": true,
          "internalType": "string"
        },
        {
          "name": "creator",
          "type": "address",
          "indexed": false,
          "internalType": "address"
        },
        {
          "name": "asset",
          "type": "address",
          "indexed": false,
          "internalType": "address"
        },
        {
          "name": "budget",
          "type": "uint256",
          "indexed": false,
          "internalType": "uint256"
        },
        {
          "name": "fee",
          "type": "uint256",
          "indexed": false,
          "internalType": "uint256"
        }
      ],
      "anonymous": false
    },
    {
      "type": "event",
      "name": "YapRequestTopUp",
      "inputs": [
        {
          "name": "yapId",
          "type": "uint256",
          "indexed": true,
          "internalType": "uint256"
        },
        {
          "name": "creator",
          "type": "address",
          "indexed": true,
          "internalType": "address"
        },
        {
          "name": "additionalBudget",
          "type": "uint256",
          "indexed": false,
          "internalType": "uint256"
        },
        {
          "name": "additionalFee",
          "type": "uint256",
          "indexed": false,
          "internalType": "uint256"
        },
        {
          "name": "asset",
          "type": "address",
          "indexed": false,
          "internalType": "address"
        }
      ],
      "anonymous": false
    },
    {
      "type": "error",
      "name": "AssetAlreadySupported",
      "inputs": []
    },
    {
      "type": "error",
      "name": "AssetNotSupported",
      "inputs": []
    },
    {
      "type": "error",
      "name": "BudgetMustBeGreaterThanZero",
      "inputs": []
    },
    {
      "type": "error",
      "name": "CannotRemoveCoreAssets",
      "inputs": []
    },
    {
      "type": "error",
      "name": "FeeMustBeGreaterThanZero",
      "inputs": []
    },
    {
      "type": "error",
      "name": "InsufficientBudget",
      "inputs": []
    },
    {
      "type": "error",
      "name": "InsufficientFees",
      "inputs": []
    },
    {
      "type": "error",
      "name": "InsufficientNativeBalance",
      "inputs": []
    },
    {
      "type": "error",
      "name": "InvalidAffiliateAddress",
      "inputs": []
    },
    {
      "type": "error",
      "name": "InvalidInitialization",
      "inputs": []
    },
    {
      "type": "error",
      "name": "InvalidWinnersProvided",
      "inputs": []
    },
    {
      "type": "error",
      "name": "InvalidYapRequestId",
      "inputs": []
    },
    {
      "type": "error",
      "name": "NativeTransferFailed",
      "inputs": []
    },
    {
      "type": "error",
      "name": "NoEthValueShouldBeSent",
      "inputs": []
    },
    {
      "type": "error",
      "name": "NoWinnersProvided",
      "inputs": []
    },
    {
      "type": "error",
      "name": "NotAdmin",
      "inputs": []
    },
    {
      "type": "error",
      "name": "NotInitializing",
      "inputs": []
    },
    {
      "type": "error",
      "name": "NotTheCreator",
      "inputs": []
    },
    {
      "type": "error",
      "name": "OnlyAdminsCanDistributeRewards",
      "inputs": []
    },
    {
      "type": "error",
      "name": "OwnableInvalidOwner",
      "inputs": [
        {
          "name": "owner",
          "type": "address",
          "internalType": "address"
        }
      ]
    },
    {
      "type": "error",
      "name": "OwnableUnauthorizedAccount",
      "inputs": [
        {
          "name": "account",
          "type": "address",
          "internalType": "address"
        }
      ]
    },
    {
      "type": "error",
      "name": "ReentrancyGuardReentrantCall",
      "inputs": []
    },
    {
      "type": "error",
      "name": "RewardMustBeGreaterThanZero",
      "inputs": []
    },
    {
      "type": "error",
      "name": "SafeERC20FailedOperation",
      "inputs": [
        {
          "name": "token",
          "type": "address",
          "internalType": "address"
        }
      ]
    },
    {
      "type": "error",
      "name": "YapRequestNotActive",
      "inputs": []
    },
    {
      "type": "error",
      "name": "YapRequestNotFound",
      "inputs": []
    }
  ],
  "bytecode": {
    "object": "0x6080806040523460aa575f51602061220d5f395f51905f525460ff8160401c16609b576002600160401b03196001600160401b038216016049575b60405161215e90816100af8239f35b6001600160401b0319166001600160401b039081175f51602061220d5f395f51905f525581527fc7f505b2f371ae2175ee4913f4499e1f2633a7b5936321eed1cdaeb6115181d290602090a15f80603a565b63f92ee8a960e01b5f5260045ffd5b5f80fdfe60806040526004361015610011575f80fd5b5f3560e01c806307b3d326146118aa57806312753b131461187257806315dae71c146118565780631785f53c146117ee5780631c9024d3146115fe57806324d7806c146115c15780632acada4d14611544578063464b4158146115075780636b1426a41461148e5780637048027514611423578063715018a6146113a657806372483bf9146110a257806375bcb9f41461100557806379ba509714610fb75780638944b19214610e385780638c3bba8a14610db15780638da5cb5b14610d7d578063968dc59814610d2b57806398cbcec514610aa45780639ba372c214610992578063a827ba2714610760578063c78f680314610728578063d3d38193146106fd578063e30c3978146106c9578063f2fde38b146106455763fa0f3d4414610137575f80fd5b346106415760803660031901126106415760043560243567ffffffffffffffff81116106415761016b903690600401611d73565b9060443567ffffffffffffffff81116106415761018c903690600401611d73565b90606435908115158203610641576101a2611edb565b335f52600460205260ff60405f20541615610632578415801561062a575b61061b5782850361060d57855f52600260205260405f2091604051936101e585611cd7565b8354855260018060a01b036001850154169260208601938452600285015495604081019687526003860154606082015260018060a01b03600487015416956080820196875260058101604051905f9080549061024082611ded565b80855291600181169081156105e657506001146105a9575b5050918161026c60069360ff950382611cf3565b60a08501520154169060c081019115158252511561059a57511561058b575f955f5b83811061056b575051861161055c57885f526002602052600260405f20016102b7878254611db1565b90555f5b88811061046157505050610350575b505060405192806040850160408652526060840192905f5b81811061032a57867f9fb24ebd5544779d3767bbc63a8dc99755551da4fc78af9735b463bb176c17a28780888860208301520390a260015f5160206120c95f395f51905f5255005b909193602080600192838060a01b0361034289611cc3565b1681520195019291016102e2565b855f52600260205285600260405f200154928361039a575b509150505f5260026020525f6002604082200155835f526002602052600660405f200160ff1981541690555f806102ca565b516001600160a01b0316806104225750505f8080808560018060a01b038651165af16103c4611dbe565b50156104135785917f9c80a946d1155e387d3fdb40ebfc6973f2df3f44827577acc768d8b4953c674a915b51604080516001600160a01b0390921682526020820192909252a25f808581610368565b633d2cec6f60e21b5f5260045ffd5b9161045c847f9c80a946d1155e387d3fdb40ebfc6973f2df3f44827577acc768d8b4953c674a9460018060a09896981b0384511690611fe9565b6103ef565b895f52600360205260405f2061048061047b838c8c611eb7565b611ec7565b815491600160401b83101561054857826104a29160016104c695018155611e25565b81546001600160a01b0393841660039290921b91821b9390911b1916919091179055565b855188908a906001600160a01b03168061051d57505f8080936104f561047b87849660018060a01b0394611eb7565b16610501868989611eb7565b35905af161050d611dbe565b5015610413576001905b016102bb565b61053161047b856105439460019796611eb7565b61053c848888611eb7565b3591611fe9565b610517565b634e487b7160e01b5f52604160045260245ffd5b634dd23c8b60e01b5f5260045ffd5b9661058460019161057d8a8787611eb7565b3590611da4565b970161028e565b639419f98f60e01b5f5260045ffd5b63b0cadf0760e01b5f5260045ffd5b5f908152602081209092505b8183106105cc57505081016020018161026c610258565b6001816020929493945483858801015201910191906105b5565b60ff191660208087019190915292151560051b8501909201925083915061026c9050610258565b626f491760e91b5f5260045ffd5b6305568ffd60e31b5f5260045ffd5b5082156101c0565b634c60237960e01b5f5260045ffd5b5f80fd5b346106415760203660031901126106415761065e611cad565b610666611f5e565b5f5160206121095f395f51905f5280546001600160a01b0319166001600160a01b039283169081179091555f5160206120a95f395f51905f52549091167f38d16b8cac22d99fc7c124b9cd0de2d3fa1faef420bfe791d8c362d765e227005f80a3005b34610641575f366003190112610641575f5160206121095f395f51905f52546040516001600160a01b039091168152602090f35b3461064157602036600319011261064157602061072061071b611cad565b611e3a565b604051908152f35b34610641576020366003190112610641576001600160a01b03610749611cad565b165f526006602052602060405f2054604051908152f35b60603660031901126106415760443560243560043561077d611edb565b6107878383611da4565b90805f52600260205260018060a01b03600460405f2001541690815f52600560205260ff60405f2054161561098357815f52600760205260405f2054841590811561097a575b8115610970575b5061096157805f52600260205260405f2093600185019360018060a01b0385541633036109525785541561059a5760ff6006870154161561058b57836109295780341061091a578034116108f5575b506108f1935b835f52600660205260405f20610840888254611da4565b90557f69a777a57c4dcac647849a28a52c62a1c08b72d63dd2eef54ba0cc7f6c30c3db60606002880197610875858a54611da4565b809955600381016108878b8254611da4565b905554925460408051958652602086018b905285018790526001600160a01b031693a360015f5160206120c95f395f51905f5255604080519182526020820194909452928301939093523360608301526001600160a01b03909216608082015290819060a0820190565b0390f35b5f8080610903819434611db1565b335af161090e611dbe565b50156104135786610823565b63dbc3a71f60e01b5f5260045ffd5b93346109435761093e6108f195303387611f13565b610829565b639cec203560e01b5f5260045ffd5b63623e835560e11b5f5260045ffd5b6357971f1d60e01b5f5260045ffd5b90508310866107d4565b861591506107cd565b63981a2a2b60e01b5f5260045ffd5b34610641576060366003190112610641576109ab611cad565b602435906109b7611c97565b6109bf611f5e565b6109c7611edb565b6001600160a01b03165f81815260066020526040902054831161055c57805f52600660205260405f206109fb848254611db1565b905580610a6f575f808080866001600160a01b0387165af1610a1b611dbe565b5015610413577f87044da2612407bc001bb0985725dcc651a0dc71eaabfd1d7e8617ca85a8c19c916040915b825194855260208501526001600160a01b031692a260015f5160206120c95f395f51905f5255005b8181610a9f857f87044da2612407bc001bb0985725dcc651a0dc71eaabfd1d7e8617ca85a8c19c95604095611fe9565b610a47565b34610641576060366003190112610641576004356024356001600160a01b0381168082036106415760443590610ad8611edb565b335f52600460205260ff60405f20541615610632578115610d1c578015610d0d57835f52600260205260405f20604051610b1181611cd7565b8154815260018060a01b036001830154166020820152600282015460408201526003820154906060810191825260018060a01b03600484015416926080820193845260058101604051905f90805490610b6982611ded565b8085529160018116908115610ce65750600114610ca9575b50509181610b9560069360ff950382611cf3565b60a0850152015416151560c0820152511561059a57518311610c9a57845f526002602052600360405f2001610bcb848254611db1565b905560018060a01b038151165f52600660205260405f20610bed848254611db1565b9055516001600160a01b031680610c6657505f80808481945af1610c0f611dbe565b5015610413577f98701faa3f2f1270faf97e612ef209b055944d018b624726f35b036de169312c915b604080516001600160a01b039290921682526020820192909252a260015f5160206120c95f395f51905f5255005b839150827f98701faa3f2f1270faf97e612ef209b055944d018b624726f35b036de169312c94610c9592611fe9565b610c38565b638d53e55360e01b5f5260045ffd5b5f908152602081209092505b818310610ccc575050810160200181610b95610b81565b600181602092949394548385880101520191019190610cb5565b60ff191660208087019190915292151560051b85019092019250839150610b959050610b81565b6304483f3f60e31b5f5260045ffd5b63cc3440c960e01b5f5260045ffd5b3461064157602036600319011261064157600435610d47611f5e565b801561059a576020817f6813975ec90107b6af911fce6b78c51a9634d4019096c7e0be97305b38d9e6ba925f55604051908152a1005b34610641575f366003190112610641575f5160206120a95f395f51905f52546040516001600160a01b039091168152602090f35b3461064157604036600319011261064157610dca611cad565b60243590610dd6611f5e565b6001600160a01b03165f8181526005602052604090205490919060ff16156109835780156109615760207f752376a7b9ab25603152a064d1999ffee4cc33e72d62a555135fc56ab2bec30891835f52600782528060405f2055604051908152a2005b3461064157604036600319011261064157610e51611cad565b602435610e5c611f5e565b6001600160a01b0382165f8181526005602052604090205490929060ff16610fa8578115610961575f838152600560209081526040808320805460ff19166001908117909155600790925282208490555480825b828110610f3f575b50505015610eef575b5060207f66ace591f7c88075839f4a0246420d0cc8a34cbe9a924cd0e1ca63c336344f4b91604051908152a2005b60015491600160401b83101561054857610f386020926104a28560017f66ace591f7c88075839f4a0246420d0cc8a34cbe9a924cd0e1ca63c336344f4b97016001556001611e25565b9150610ec1565b81811015610f945760015f527fb10e2d527612073b26eecdfd717e6a320cf44b4afac2b0732d9fcbe2b7fa0cf68101546001600160a01b03168714610f8657600101610eb0565b505050506001848080610eb8565b634e487b7160e01b5f52603260045260245ffd5b63b1093e5b60e01b5f5260045ffd5b34610641575f366003190112610641575f5160206121095f395f51905f5254336001600160a01b0390911603610ff257610ff033611f7e565b005b63118cdaa760e01b5f523360045260245ffd5b346106415760203660031901126106415761101e611cad565b611026611f5e565b6001600160a01b03165f8181526005602052604090205460ff161561098357801561109357805f52600560205260405f2060ff198154169055805f5260076020525f60408120557f37803e2125c48ee96c38ddf04e826daf335b0e1603579040fd275aba6d06b6fc5f80a2005b63c5343a2960e01b5f5260045ffd5b346106415760603660031901126106415760043567ffffffffffffffff811161064157366023820112156106415780600401359067ffffffffffffffff8211610548578160051b604051926110fa6020830185611cf3565b8352602460208401918301019136831161064157602401905b82821061138e5783611123611c97565b905f5160206120e95f395f51905f525460ff8160401c16159267ffffffffffffffff821680159081611386575b600114908161137c575b159081611373575b506113645767ffffffffffffffff1982166001175f5160206120e95f395f51905f525561119d9184611338575b5061119861207d565b611f7e565b6111a561207d565b6111ad61207d565b60015f5160206120c95f395f51905f528190556024355f9081553381526004602090815260408220805460ff1990811685179091559180527f05b8ccbb9d4d8fb16ea74ce3c29a41f1b461fbdaff4714a0d9a8eb05499746bc8054909216831790915560079052620186a07f6d5257204ebe7d88fd91ae87941cb2dd9d8062b64ae5a2bd2d28ec40b9fbf6df5554600160401b8110156105485780600161125992016001556001611e25565b81549060018060a01b039060031b1b191690555f5b81518110156112a657600190818060a01b0360208260051b85010151165f52600460205260405f208260ff198254161790550161126e565b506112d87fe58d4b3592c74e580b584cc31679cad3eefea91577f47aabd1764352d4b4901b9160405191829182611d31565b0390a16112e157005b68ff0000000000000000195f5160206120e95f395f51905f5254165f5160206120e95f395f51905f52557fc7f505b2f371ae2175ee4913f4499e1f2633a7b5936321eed1cdaeb6115181d2602060405160018152a1005b68ffffffffffffffffff191668010000000000000001175f5160206120e95f395f51905f52558461118f565b63f92ee8a960e01b5f5260045ffd5b90501585611162565b303b15915061115a565b859150611150565b6020809161139b84611cc3565b815201910190611113565b34610641575f366003190112610641576113be611f5e565b5f5160206121095f395f51905f5280546001600160a01b03199081169091555f5160206120a95f395f51905f52805491821690555f906001600160a01b03167f8be0079c531659141344cd1fd0a4f28419497f9722a3daafe3b4186f6b6457e08280a3005b346106415760203660031901126106415761143c611cad565b611444611f5e565b6001600160a01b03165f818152600460205260408120805460ff191660011790553391907fbf3f493c772c8c283fd124432c2d0f539ab343faa04258fe88e52912d36b102b9080a3005b34610641576020366003190112610641576004355f52600360205260405f206040519081602082549182815201915f5260205f20905f5b8181106114e8576108f1856114dc81870382611cf3565b60405191829182611d31565b82546001600160a01b03168452602090930192600192830192016114c5565b34610641576020366003190112610641576001600160a01b03611528611cad565b165f526005602052602060ff60405f2054166040519015158152f35b34610641575f3660031901126106415760405180602060015491828152019060015f527fb10e2d527612073b26eecdfd717e6a320cf44b4afac2b0732d9fcbe2b7fa0cf6905f5b8181106115a2576108f1856114dc81870382611cf3565b82546001600160a01b031684526020909301926001928301920161158b565b34610641576020366003190112610641576001600160a01b036115e2611cad565b165f526004602052602060ff60405f2054166040519015158152f35b34610641576020366003190112610641575f60c060405161161e81611cd7565b828152826020820152826040820152826060820152826080820152606060a082015201526004355f52600260205260405f206040519061165d82611cd7565b8054825260018060a01b0360018201541691602081019283526002820154604082019081526003830154926060830193845260018060a01b036004820154169060808401918252600581019060405180925f908054906116bc82611ded565b80855291600181169081156117c65750600114611786575b5050916116e760069260ff940385611cf3565b60a087019384520154169160c0850192151583528451156117775761012095602094604051988997878952518789015260018060a01b03905116604088015251606087015251608086015260018060a01b0390511660a08501525160e060c0850152805192839182610100870152018585015e5f83830185015251151560e0830152601f01601f19168101030190f35b6311d6c75b60e31b5f5260045ffd5b5f908152602081209092505b8183106117aa57505081016020016116e760066116d4565b6020919350806001915483858901015201910190918492611792565b60ff191660208087019190915292151560051b850190920192506116e79150600690506116d4565b3461064157602036600319011261064157611807611cad565b61180f611f5e565b6001600160a01b03165f818152600460205260408120805460ff191690553391907fdb9d5d31320daf5bc7181d565b6da4d12e30f0f4d5aa324a992426c14a1d19ce9080a3005b34610641575f3660031901126106415760205f54604051908152f35b34610641576020366003190112610641576001600160a01b03611893611cad565b165f526007602052602060405f2054604051908152f35b6080366003190112610641576004356024356118c4611c97565b916064359267ffffffffffffffff84116106415736602385011215610641578360040135936118f285611d15565b946119006040519687611cf3565b8086526020860191366024838301011161064157815f9260246020930185378701015261192b611edb565b6001600160a01b0382165f8181526005602052604090205460ff1615610983576119558585611da4565b815f52600760205260405f20548515908115611c8e575b8115611c84575b506109615781611c6e5780341061091a57803411611c49575b505b5f549560018701809711611c3557865f55604051966119ac88611cd7565b80885260208801973389526040810187815260608201898152608083019186835260a084019b868d5260c0850195600187525f52600260205260405f209451855560018060a01b03905116600185019060018060a01b03166bffffffffffffffffffffffff60a01b82541617905551600284015551600383015560018060a01b03905116600482019060018060a01b03166bffffffffffffffffffffffff60a01b82541617905560058101985198895167ffffffffffffffff811161054857611a758254611ded565b601f8111611bf0575b506020601f8211600114611b8557908060069493926108f19b9c9d5f92611b7a575b50508160011b915f199060031b1c19161790555b019051151560ff80198354169116179055815f52600660205260405f20611adc888254611da4565b90557faa9a4f4b495cbb30e21880bb0dc38808058c439e31f3ec22c5e6dad638c4c31660805f54948593604051918291518091835e81015f815203902093604051903382526020820152886040820152896060820152a360015f5160206120c95f395f51905f5255604080519182526020820194909452928301939093523360608301526001600160a01b03909216608082015290819060a0820190565b015190508d80611aa0565b601f19821690835f52805f20915f5b818110611bd857509183916108f19c9d9e600697969560019510611bc0575b505050811b019055611ab4565b01515f1960f88460031b161c191690558d8080611bb3565b8e830151845560019093019260209283019201611b94565b825f5260205f20601f830160051c81019160208410611c2b575b601f0160051c01905b818110611c205750611a7e565b5f8155600101611c13565b9091508190611c0a565b634e487b7160e01b5f52601160045260245ffd5b5f8080611c57819434611db1565b335af1611c62611dbe565b5015610413578661198c565b3461094357611c7f90303384611f13565b61198e565b9050811088611973565b8715915061196c565b604435906001600160a01b038216820361064157565b600435906001600160a01b038216820361064157565b35906001600160a01b038216820361064157565b60e0810190811067ffffffffffffffff82111761054857604052565b90601f8019910116810190811067ffffffffffffffff82111761054857604052565b67ffffffffffffffff811161054857601f01601f191660200190565b60206040818301928281528451809452019201905f5b818110611d545750505090565b82516001600160a01b0316845260209384019390920191600101611d47565b9181601f840112156106415782359167ffffffffffffffff8311610641576020808501948460051b01011161064157565b91908201809211611c3557565b91908203918211611c3557565b3d15611de8573d90611dcf82611d15565b91611ddd6040519384611cf3565b82523d5f602084013e565b606090565b90600182811c92168015611e1b575b6020831014611e0757565b634e487b7160e01b5f52602260045260245ffd5b91607f1691611dfc565b8054821015610f94575f5260205f2001905f90565b6001600160a01b03168015611eb2576020602491604051928380926370a0823160e01b82523060048301525afa908115611ea7575f91611e78575090565b90506020813d602011611e9f575b81611e9360209383611cf3565b81010312610641575190565b3d9150611e86565b6040513d5f823e3d90fd5b504790565b9190811015610f945760051b0190565b356001600160a01b03811681036106415790565b60025f5160206120c95f395f51905f525414611f045760025f5160206120c95f395f51905f5255565b633ee5aeb560e01b5f5260045ffd5b6040516323b872dd60e01b60208201526001600160a01b039283166024820152929091166044830152606480830193909352918152611f5c91611f57608483611cf3565b612025565b565b5f5160206120a95f395f51905f52546001600160a01b03163303610ff257565b5f5160206121095f395f51905f5280546001600160a01b03199081169091555f5160206120a95f395f51905f5280549182166001600160a01b0393841690811790915591167f8be0079c531659141344cd1fd0a4f28419497f9722a3daafe3b4186f6b6457e05f80a3565b60405163a9059cbb60e01b60208201526001600160a01b03929092166024830152604480830193909352918152611f5c91611f57606483611cf3565b905f602091828151910182855af115611ea7575f513d61207457506001600160a01b0381163b155b6120545750565b635274afe760e01b5f9081526001600160a01b0391909116600452602490fd5b6001141561204d565b60ff5f5160206120e95f395f51905f525460401c161561209957565b631afcd79f60e31b5f5260045ffdfe9016d09d72d40fdae2fd8ceac6b6234c7706214fd39c1cd1e609a0528c1993009b779b17422d0df92223018b32b4d1fa46e071723d6817e2486d003becc55f00f0c57e16840df040f15088dc2f81fe391c3923bec73e23a9662efc9c229c6a00237e158222e3e6968b72b9db0d8043aacf074ad9f650f0d1606b4d82ee432c00a2646970667358221220c8898bad6d132e94b5c9d3cf8131b4c72b039c4e742b5aadeaff305392a6454364736f6c634300081c0033f0c57e16840df040f15088dc2f81fe391c3923bec73e23a9662efc9c229c6a00",
    "linkReferences": {}
  },
  "methodIdentifiers": {
    "acceptOwnership()": "79ba5097",
    "addAdmin(address)": "70480275",
    "addAssetSupport(address,uint256)": "8944b192",
    "createRequest(uint256,uint256,address,string)": "07b3d326",
    "getAllAssets()": "2acada4d",
    "getFeeBalance(address)": "c78f6803",
    "getMinimumBudget(address)": "12753b13",
    "getTotalBalance(address)": "d3d38193",
    "getTotalYapRequests()": "15dae71c",
    "getWinners(uint256)": "6b1426a4",
    "getYapRequest(uint256)": "1c9024d3",
    "initialize(address[],uint256,address)": "72483bf9",
    "isAdmin(address)": "24d7806c",
    "isAssetSupported(address)": "464b4158",
    "owner()": "8da5cb5b",
    "pendingOwner()": "e30c3978",
    "removeAdmin(address)": "1785f53c",
    "removeAssetSupport(address)": "75bcb9f4",
    "renounceOwnership()": "715018a6",
    "resetYapRequestCount(uint256)": "968dc598",
    "rewardAffiliateFromFees(uint256,address,uint256)": "98cbcec5",
    "rewardYapWinners(uint256,address[],uint256[],bool)": "fa0f3d44",
    "topUpRequest(uint256,uint256,uint256)": "a827ba27",
    "transferOwnership(address)": "f2fde38b",
    "updateAssetRequirements(address,uint256)": "8c3bba8a",
    "withdrawFees(address,uint256,address)": "9ba372c2"
  },
  "id": 35
}