{
  "abi": [
    {
      "type": "constructor",
      "inputs": [],
      "stateMutability": "nonpayable"
    },
    {
      "type": "function",
      "name": "acceptOwnership",
      "inputs": [],
      "outputs": [],
      "stateMutability": "nonpayable"
    },
    {
      "type": "function",
      "name": "addAdmin",
      "inputs": [
        {
          "name": "_admin",
          "type": "address",
          "internalType": "address"
        }
      ],
      "outputs": [],
      "stateMutability": "nonpayable"
    },
    {
      "type": "function",
      "name": "addAssetSupport",
      "inputs": [
        {
          "name": "asset",
          "type": "address",
          "internalType": "address"
        },
        {
          "name": "minimumBudget",
          "type": "uint256",
          "internalType": "uint256"
        }
      ],
      "outputs": [],
      "stateMutability": "nonpayable"
    },
    {
      "type": "function",
      "name": "createRequest",
      "inputs": [
        {
          "name": "_escrowId",
          "type": "uint256",
          "internalType": "uint256"
        },
        {
          "name": "_budget",
          "type": "uint256",
          "internalType": "uint256"
        },
        {
          "name": "_fee",
          "type": "uint256",
          "internalType": "uint256"
        },
        {
          "name": "_asset",
          "type": "address",
          "internalType": "address"
        },
        {
          "name": "_jobId",
          "type": "string",
          "internalType": "string"
        }
      ],
      "outputs": [
        {
          "name": "",
          "type": "uint256",
          "internalType": "uint256"
        },
        {
          "name": "",
          "type": "uint256",
          "internalType": "uint256"
        },
        {
          "name": "",
          "type": "uint256",
          "internalType": "uint256"
        },
        {
          "name": "",
          "type": "address",
          "internalType": "address"
        },
        {
          "name": "",
          "type": "address",
          "internalType": "address"
        }
      ],
      "stateMutability": "payable"
    },
    {
      "type": "function",
      "name": "getAllAssets",
      "inputs": [],
      "outputs": [
        {
          "name": "",
          "type": "address[]",
          "internalType": "address[]"
        }
      ],
      "stateMutability": "view"
    },
    {
      "type": "function",
      "name": "getFeeBalance",
      "inputs": [
        {
          "name": "asset",
          "type": "address",
          "internalType": "address"
        }
      ],
      "outputs": [
        {
          "name": "",
          "type": "uint256",
          "internalType": "uint256"
        }
      ],
      "stateMutability": "view"
    },
    {
      "type": "function",
      "name": "getMinimumBudget",
      "inputs": [
        {
          "name": "asset",
          "type": "address",
          "internalType": "address"
        }
      ],
      "outputs": [
        {
          "name": "",
          "type": "uint256",
          "internalType": "uint256"
        }
      ],
      "stateMutability": "view"
    },
    {
      "type": "function",
      "name": "getTotalBalance",
      "inputs": [
        {
          "name": "asset",
          "type": "address",
          "internalType": "address"
        }
      ],
      "outputs": [
        {
          "name": "",
          "type": "uint256",
          "internalType": "uint256"
        }
      ],
      "stateMutability": "view"
    },
    {
      "type": "function",
      "name": "getTotalYapRequests",
      "inputs": [],
      "outputs": [
        {
          "name": "",
          "type": "uint256",
          "internalType": "uint256"
        }
      ],
      "stateMutability": "view"
    },
    {
      "type": "function",
      "name": "getWinners",
      "inputs": [
        {
          "name": "yapRequestId",
          "type": "uint256",
          "internalType": "uint256"
        }
      ],
      "outputs": [
        {
          "name": "",
          "type": "address[]",
          "internalType": "address[]"
        }
      ],
      "stateMutability": "view"
    },
    {
      "type": "function",
      "name": "getYapRequest",
      "inputs": [
        {
          "name": "yapRequestId",
          "type": "uint256",
          "internalType": "uint256"
        }
      ],
      "outputs": [
        {
          "name": "",
          "type": "tuple",
          "internalType": "struct EscrowLogic.YapRequest",
          "components": [
            {
              "name": "yapId",
              "type": "uint256",
              "internalType": "uint256"
            },
            {
              "name": "creator",
              "type": "address",
              "internalType": "address"
            },
            {
              "name": "budget",
              "type": "uint256",
              "internalType": "uint256"
            },
            {
              "name": "fee",
              "type": "uint256",
              "internalType": "uint256"
            },
            {
              "name": "asset",
              "type": "address",
              "internalType": "address"
            },
            {
              "name": "jobId",
              "type": "string",
              "internalType": "string"
            },
            {
              "name": "isActive",
              "type": "bool",
              "internalType": "bool"
            }
          ]
        }
      ],
      "stateMutability": "view"
    },
    {
      "type": "function",
      "name": "initialize",
      "inputs": [
        {
          "name": "_admins",
          "type": "address[]",
          "internalType": "address[]"
        },
        {
          "name": "initialOwner",
          "type": "address",
          "internalType": "address"
        }
      ],
      "outputs": [],
      "stateMutability": "nonpayable"
    },
    {
      "type": "function",
      "name": "isAdmin",
      "inputs": [
        {
          "name": "_address",
          "type": "address",
          "internalType": "address"
        }
      ],
      "outputs": [
        {
          "name": "",
          "type": "bool",
          "internalType": "bool"
        }
      ],
      "stateMutability": "view"
    },
    {
      "type": "function",
      "name": "isAssetSupported",
      "inputs": [
        {
          "name": "asset",
          "type": "address",
          "internalType": "address"
        }
      ],
      "outputs": [
        {
          "name": "",
          "type": "bool",
          "internalType": "bool"
        }
      ],
      "stateMutability": "view"
    },
    {
      "type": "function",
      "name": "owner",
      "inputs": [],
      "outputs": [
        {
          "name": "",
          "type": "address",
          "internalType": "address"
        }
      ],
      "stateMutability": "view"
    },
    {
      "type": "function",
      "name": "pendingOwner",
      "inputs": [],
      "outputs": [
        {
          "name": "",
          "type": "address",
          "internalType": "address"
        }
      ],
      "stateMutability": "view"
    },
    {
      "type": "function",
      "name": "removeAdmin",
      "inputs": [
        {
          "name": "_admin",
          "type": "address",
          "internalType": "address"
        }
      ],
      "outputs": [],
      "stateMutability": "nonpayable"
    },
    {
      "type": "function",
      "name": "removeAssetSupport",
      "inputs": [
        {
          "name": "asset",
          "type": "address",
          "internalType": "address"
        }
      ],
      "outputs": [],
      "stateMutability": "nonpayable"
    },
    {
      "type": "function",
      "name": "renounceOwnership",
      "inputs": [],
      "outputs": [],
      "stateMutability": "nonpayable"
    },
    {
      "type": "function",
      "name": "resetYapRequestCount",
      "inputs": [
        {
          "name": "newYapRequstCount",
          "type": "uint256",
          "internalType": "uint256"
        }
      ],
      "outputs": [],
      "stateMutability": "nonpayable"
    },
    {
      "type": "function",
      "name": "rewardAffiliateFromFees",
      "inputs": [
        {
          "name": "yapRequestId",
          "type": "uint256",
          "internalType": "uint256"
        },
        {
          "name": "affiliate",
          "type": "address",
          "internalType": "address"
        },
        {
          "name": "reward",
          "type": "uint256",
          "internalType": "uint256"
        }
      ],
      "outputs": [],
      "stateMutability": "nonpayable"
    },
    {
      "type": "function",
      "name": "rewardYapWinners",
      "inputs": [
        {
          "name": "yapRequestId",
          "type": "uint256",
          "internalType": "uint256"
        },
        {
          "name": "winners",
          "type": "address[]",
          "internalType": "address[]"
        },
        {
          "name": "winnersRewards",
          "type": "uint256[]",
          "internalType": "uint256[]"
        },
        {
          "name": "isLastBatch",
          "type": "bool",
          "internalType": "bool"
        }
      ],
      "outputs": [],
      "stateMutability": "nonpayable"
    },
    {
      "type": "function",
      "name": "topUpRequest",
      "inputs": [
        {
          "name": "yapRequestId",
          "type": "uint256",
          "internalType": "uint256"
        },
        {
          "name": "additionalBudget",
          "type": "uint256",
          "internalType": "uint256"
        },
        {
          "name": "additionalFee",
          "type": "uint256",
          "internalType": "uint256"
        }
      ],
      "outputs": [
        {
          "name": "",
          "type": "uint256",
          "internalType": "uint256"
        },
        {
          "name": "",
          "type": "uint256",
          "internalType": "uint256"
        },
        {
          "name": "",
          "type": "uint256",
          "internalType": "uint256"
        },
        {
          "name": "",
          "type": "address",
          "internalType": "address"
        },
        {
          "name": "",
          "type": "address",
          "internalType": "address"
        }
      ],
      "stateMutability": "payable"
    },
    {
      "type": "function",
      "name": "transferOwnership",
      "inputs": [
        {
          "name": "newOwner",
          "type": "address",
          "internalType": "address"
        }
      ],
      "outputs": [],
      "stateMutability": "nonpayable"
    },
    {
      "type": "function",
      "name": "updateAssetRequirements",
      "inputs": [
        {
          "name": "asset",
          "type": "address",
          "internalType": "address"
        },
        {
          "name": "minimumBudget",
          "type": "uint256",
          "internalType": "uint256"
        }
      ],
      "outputs": [],
      "stateMutability": "nonpayable"
    },
    {
      "type": "function",
      "name": "withdrawFees",
      "inputs": [
        {
          "name": "to",
          "type": "address",
          "internalType": "address"
        },
        {
          "name": "amount",
          "type": "uint256",
          "internalType": "uint256"
        },
        {
          "name": "asset",
          "type": "address",
          "internalType": "address"
        }
      ],
      "outputs": [],
      "stateMutability": "nonpayable"
    },
    {
      "type": "event",
      "name": "AdminAdded",
      "inputs": [
        {
          "name": "admin",
          "type": "address",
          "indexed": true,
          "internalType": "address"
        },
        {
          "name": "addedBy",
          "type": "address",
          "indexed": true,
          "internalType": "address"
        }
      ],
      "anonymous": false
    },
    {
      "type": "event",
      "name": "AdminRemoved",
      "inputs": [
        {
          "name": "admin",
          "type": "address",
          "indexed": true,
          "internalType": "address"
        },
        {
          "name": "removedBy",
          "type": "address",
          "indexed": true,
          "internalType": "address"
        }
      ],
      "anonymous": false
    },
    {
      "type": "event",
      "name": "AffiliateRewardFromFees",
      "inputs": [
        {
          "name": "yapRequestId",
          "type": "uint256",
          "indexed": true,
          "internalType": "uint256"
        },
        {
          "name": "affiliate",
          "type": "address",
          "indexed": false,
          "internalType": "address"
        },
        {
          "name": "reward",
          "type": "uint256",
          "indexed": false,
          "internalType": "uint256"
        }
      ],
      "anonymous": false
    },
    {
      "type": "event",
      "name": "AssetAdded",
      "inputs": [
        {
          "name": "asset",
          "type": "address",
          "indexed": true,
          "internalType": "address"
        },
        {
          "name": "minimumBudget",
          "type": "uint256",
          "indexed": false,
          "internalType": "uint256"
        }
      ],
      "anonymous": false
    },
    {
      "type": "event",
      "name": "AssetRemoved",
      "inputs": [
        {
          "name": "asset",
          "type": "address",
          "indexed": true,
          "internalType": "address"
        }
      ],
      "anonymous": false
    },
    {
      "type": "event",
      "name": "AssetUpdated",
      "inputs": [
        {
          "name": "asset",
          "type": "address",
          "indexed": true,
          "internalType": "address"
        },
        {
          "name": "minimumBudget",
          "type": "uint256",
          "indexed": false,
          "internalType": "uint256"
        }
      ],
      "anonymous": false
    },
    {
      "type": "event",
      "name": "Claimed",
      "inputs": [
        {
          "name": "yapId",
          "type": "uint256",
          "indexed": true,
          "internalType": "uint256"
        },
        {
          "name": "winner",
          "type": "address",
          "indexed": false,
          "internalType": "address"
        },
        {
          "name": "amount",
          "type": "uint256",
          "indexed": false,
          "internalType": "uint256"
        }
      ],
      "anonymous": false
    },
    {
      "type": "event",
      "name": "CreatorRefunded",
      "inputs": [
        {
          "name": "yapRequestId",
          "type": "uint256",
          "indexed": true,
          "internalType": "uint256"
        },
        {
          "name": "creator",
          "type": "address",
          "indexed": false,
          "internalType": "address"
        },
        {
          "name": "budgetLeft",
          "type": "uint256",
          "indexed": false,
          "internalType": "uint256"
        }
      ],
      "anonymous": false
    },
    {
      "type": "event",
      "name": "FeesWithdrawn",
      "inputs": [
        {
          "name": "to",
          "type": "address",
          "indexed": true,
          "internalType": "address"
        },
        {
          "name": "amount",
          "type": "uint256",
          "indexed": false,
          "internalType": "uint256"
        },
        {
          "name": "asset",
          "type": "address",
          "indexed": false,
          "internalType": "address"
        }
      ],
      "anonymous": false
    },
    {
      "type": "event",
      "name": "Initialized",
      "inputs": [
        {
          "name": "version",
          "type": "uint64",
          "indexed": false,
          "internalType": "uint64"
        }
      ],
      "anonymous": false
    },
    {
      "type": "event",
      "name": "Initialized",
      "inputs": [
        {
          "name": "admins",
          "type": "address[]",
          "indexed": false,
          "internalType": "address[]"
        }
      ],
      "anonymous": false
    },
    {
      "type": "event",
      "name": "MinimumBudgetReset",
      "inputs": [
        {
          "name": "newMinimumBudget",
          "type": "uint256",
          "indexed": false,
          "internalType": "uint256"
        }
      ],
      "anonymous": false
    },
    {
      "type": "event",
      "name": "MinimumFeeReset",
      "inputs": [
        {
          "name": "newMinimumFee",
          "type": "uint256",
          "indexed": false,
          "internalType": "uint256"
        }
      ],
      "anonymous": false
    },
    {
      "type": "event",
      "name": "OwnershipTransferStarted",
      "inputs": [
        {
          "name": "previousOwner",
          "type": "address",
          "indexed": true,
          "internalType": "address"
        },
        {
          "name": "newOwner",
          "type": "address",
          "indexed": true,
          "internalType": "address"
        }
      ],
      "anonymous": false
    },
    {
      "type": "event",
      "name": "OwnershipTransferred",
      "inputs": [
        {
          "name": "previousOwner",
          "type": "address",
          "indexed": true,
          "internalType": "address"
        },
        {
          "name": "newOwner",
          "type": "address",
          "indexed": true,
          "internalType": "address"
        }
      ],
      "anonymous": false
    },
    {
      "type": "event",
      "name": "RewardsDistributed",
      "inputs": [
        {
          "name": "yapRequestId",
          "type": "uint256",
          "indexed": true,
          "internalType": "uint256"
        },
        {
          "name": "winners",
          "type": "address[]",
          "indexed": false,
          "internalType": "address[]"
        },
        {
          "name": "totalReward",
          "type": "uint256",
          "indexed": false,
          "internalType": "uint256"
        }
      ],
      "anonymous": false
    },
    {
      "type": "event",
      "name": "YapRequestCountReset",
      "inputs": [
        {
          "name": "newYapRequestCount",
          "type": "uint256",
          "indexed": false,
          "internalType": "uint256"
        }
      ],
      "anonymous": false
    },
    {
      "type": "event",
      "name": "YapRequestCreated",
      "inputs": [
        {
          "name": "yapId",
          "type": "uint256",
          "indexed": true,
          "internalType": "uint256"
        },
        {
          "name": "creator",
          "type": "address",
          "indexed": false,
          "internalType": "address"
        },
        {
          "name": "jobId",
          "type": "string",
          "indexed": false,
          "internalType": "string"
        },
        {
          "name": "asset",
          "type": "address",
          "indexed": false,
          "internalType": "address"
        },
        {
          "name": "budget",
          "type": "uint256",
          "indexed": false,
          "internalType": "uint256"
        },
        {
          "name": "fee",
          "type": "uint256",
          "indexed": false,
          "internalType": "uint256"
        }
      ],
      "anonymous": false
    },
    {
      "type": "event",
      "name": "YapRequestTopUp",
      "inputs": [
        {
          "name": "yapId",
          "type": "uint256",
          "indexed": true,
          "internalType": "uint256"
        },
        {
          "name": "creator",
          "type": "address",
          "indexed": true,
          "internalType": "address"
        },
        {
          "name": "additionalBudget",
          "type": "uint256",
          "indexed": false,
          "internalType": "uint256"
        },
        {
          "name": "additionalFee",
          "type": "uint256",
          "indexed": false,
          "internalType": "uint256"
        },
        {
          "name": "asset",
          "type": "address",
          "indexed": false,
          "internalType": "address"
        }
      ],
      "anonymous": false
    },
    {
      "type": "error",
      "name": "AssetAlreadySupported",
      "inputs": []
    },
    {
      "type": "error",
      "name": "AssetNotSupported",
      "inputs": []
    },
    {
      "type": "error",
      "name": "BudgetMustBeGreaterThanZero",
      "inputs": []
    },
    {
      "type": "error",
      "name": "CannotRemoveCoreAssets",
      "inputs": []
    },
    {
      "type": "error",
      "name": "FeeMustBeGreaterThanZero",
      "inputs": []
    },
    {
      "type": "error",
      "name": "InsufficientBudget",
      "inputs": []
    },
    {
      "type": "error",
      "name": "InsufficientFees",
      "inputs": []
    },
    {
      "type": "error",
      "name": "InsufficientNativeBalance",
      "inputs": []
    },
    {
      "type": "error",
      "name": "InvalidAffiliateAddress",
      "inputs": []
    },
    {
      "type": "error",
      "name": "InvalidInitialization",
      "inputs": []
    },
    {
      "type": "error",
      "name": "InvalidWinnersProvided",
      "inputs": []
    },
    {
      "type": "error",
      "name": "InvalidYapRequestId",
      "inputs": []
    },
    {
      "type": "error",
      "name": "NativeTransferFailed",
      "inputs": []
    },
    {
      "type": "error",
      "name": "NoEthValueShouldBeSent",
      "inputs": []
    },
    {
      "type": "error",
      "name": "NoWinnersProvided",
      "inputs": []
    },
    {
      "type": "error",
      "name": "NotAdmin",
      "inputs": []
    },
    {
      "type": "error",
      "name": "NotInitializing",
      "inputs": []
    },
    {
      "type": "error",
      "name": "NotTheCreator",
      "inputs": []
    },
    {
      "type": "error",
      "name": "OnlyAdminsCanDistributeRewards",
      "inputs": []
    },
    {
      "type": "error",
      "name": "OwnableInvalidOwner",
      "inputs": [
        {
          "name": "owner",
          "type": "address",
          "internalType": "address"
        }
      ]
    },
    {
      "type": "error",
      "name": "OwnableUnauthorizedAccount",
      "inputs": [
        {
          "name": "account",
          "type": "address",
          "internalType": "address"
        }
      ]
    },
    {
      "type": "error",
      "name": "ReentrancyGuardReentrantCall",
      "inputs": []
    },
    {
      "type": "error",
      "name": "RewardMustBeGreaterThanZero",
      "inputs": []
    },
    {
      "type": "error",
      "name": "SafeERC20FailedOperation",
      "inputs": [
        {
          "name": "token",
          "type": "address",
          "internalType": "address"
        }
      ]
    },
    {
      "type": "error",
      "name": "YapRequestNotActive",
      "inputs": []
    },
    {
      "type": "error",
      "name": "YapRequestNotFound",
      "inputs": []
    }
  ],
  "bytecode": {
    "object": "0x6080806040523460aa575f5160206122215f395f51905f525460ff8160401c16609b576002600160401b03196001600160401b038216016049575b60405161217290816100af8239f35b6001600160401b0319166001600160401b039081175f5160206122215f395f51905f525581527fc7f505b2f371ae2175ee4913f4499e1f2633a7b5936321eed1cdaeb6115181d290602090a15f80603a565b63f92ee8a960e01b5f5260045ffd5b5f80fdfe6080806040526004361015610012575f80fd5b5f3560e01c90816312753b1314611c535750806315dae71c14611c375780631785f53c14611bcf5780631c9024d3146119f857806324d7806c146119bb5780632acada4d1461193e578063462d0b2e1461163d578063464b4158146116005780636b1426a414611587578063704802751461151c578063715018a61461149f57806375bcb9f41461140257806379ba5097146113b45780638944b192146112355780638c3bba8a146111ae5780638da5cb5b1461117a578063968dc5981461112857806398cbcec514610ea45780639ba372c214610d8f578063a62de1cc14610995578063a827ba2714610763578063c78f68031461072b578063d3d3819314610700578063e30c3978146106cc578063f2fde38b146106485763fa0f3d441461013a575f80fd5b346106445760803660031901126106445760043560243567ffffffffffffffff81116106445761016e903690600401611d87565b9060443567ffffffffffffffff81116106445761018f903690600401611d87565b90606435908115158203610644576101a5611f7a565b335f52600460205260ff60405f20541615610635578415801561062d575b61061e5782850361061057855f52600260205260405f2091604051936101e885611d2d565b8354855260018060a01b036001850154169260208601938452600285015495604081019687526003860154606082015260018060a01b03600487015416956080820196875260058101604051905f9080549061024382611db8565b80855291600181169081156105e957506001146105ac575b5050918161026f60069360ff950382611d49565b60a08501520154169060c081019115158252511561059d57511561058e575f955f5b83811061056e575051861161055f57885f526002602052600260405f20016102ba878254611e05565b90555f5b88811061046457505050610353575b505060405192806040850160408652526060840192905f5b81811061032d57867f9fb24ebd5544779d3767bbc63a8dc99755551da4fc78af9735b463bb176c17a28780888860208301520390a260015f5160206120dd5f395f51905f5255005b909193602080600192838060a01b0361034589611cb3565b1681520195019291016102e5565b855f52600260205285600260405f200154928361039d575b509150505f5260026020525f6002604082200155835f526002602052600660405f200160ff1981541690555f806102cd565b516001600160a01b0316806104255750505f8080808560018060a01b038651165af16103c7611e12565b50156104165785917f9c80a946d1155e387d3fdb40ebfc6973f2df3f44827577acc768d8b4953c674a915b51604080516001600160a01b0390921682526020820192909252a25f80858161036b565b633d2cec6f60e21b5f5260045ffd5b9161045f847f9c80a946d1155e387d3fdb40ebfc6973f2df3f44827577acc768d8b4953c674a9460018060a09896981b0384511690611fb2565b6103f2565b895f52600360205260405f2061048361047e838c8c611ecb565b611edb565b815491600160401b83101561054b57826104a59160016104c995018155611df0565b81546001600160a01b0393841660039290921b91821b9390911b1916919091179055565b855188908a906001600160a01b03168061052057505f8080936104f861047e87849660018060a01b0394611ecb565b16610504868989611ecb565b35905af1610510611e12565b5015610416576001905b016102be565b61053461047e856105469460019796611ecb565b61053f848888611ecb565b3591611fb2565b61051a565b634e487b7160e01b5f52604160045260245ffd5b634dd23c8b60e01b5f5260045ffd5b966105876001916105808a8787611ecb565b3590611e41565b9701610291565b639419f98f60e01b5f5260045ffd5b63b0cadf0760e01b5f5260045ffd5b5f908152602081209092505b8183106105cf57505081016020018161026f61025b565b6001816020929493945483858801015201910191906105b8565b60ff191660208087019190915292151560051b8501909201925083915061026f905061025b565b626f491760e91b5f5260045ffd5b6305568ffd60e31b5f5260045ffd5b5082156101c3565b634c60237960e01b5f5260045ffd5b5f80fd5b3461064457602036600319011261064457610661611c87565b610669611eef565b5f51602061211d5f395f51905f5280546001600160a01b0319166001600160a01b039283169081179091555f5160206120bd5f395f51905f52549091167f38d16b8cac22d99fc7c124b9cd0de2d3fa1faef420bfe791d8c362d765e227005f80a3005b34610644575f366003190112610644575f51602061211d5f395f51905f52546040516001600160a01b039091168152602090f35b3461064457602036600319011261064457602061072361071e611c87565b611e4e565b604051908152f35b34610644576020366003190112610644576001600160a01b0361074c611c87565b165f526006602052602060405f2054604051908152f35b606036600319011261064457604435602435600435610780611f7a565b61078a8383611e41565b90805f52600260205260018060a01b03600460405f2001541690815f52600560205260ff60405f2054161561098657815f52600760205260405f2054841590811561097d575b8115610973575b5061096457805f52600260205260405f2093600185019360018060a01b0385541633036109555785541561059d5760ff6006870154161561058e578361092c5780341061091d578034116108f8575b506108f4935b835f52600660205260405f20610843888254611e41565b90557f69a777a57c4dcac647849a28a52c62a1c08b72d63dd2eef54ba0cc7f6c30c3db60606002880197610878858a54611e41565b8099556003810161088a8b8254611e41565b905554925460408051958652602086018b905285018790526001600160a01b031693a360015f5160206120dd5f395f51905f5255604080519182526020820194909452928301939093523360608301526001600160a01b03909216608082015290819060a0820190565b0390f35b5f8080610906819434611e05565b335af1610911611e12565b50156104165786610826565b63dbc3a71f60e01b5f5260045ffd5b9334610946576109416108f495303387611ff5565b61082c565b639cec203560e01b5f5260045ffd5b63623e835560e11b5f5260045ffd5b6357971f1d60e01b5f5260045ffd5b90508310866107d7565b861591506107d0565b63981a2a2b60e01b5f5260045ffd5b60a0366003190112610644576064356001600160a01b0381169060443590602435906004358482036106445760843567ffffffffffffffff811161064457366023820112156106445780600401356109ec81611d6b565b916109fa6040519384611d49565b818352366024838301011161064457815f926024602093018386013783010152610a22611f7a565b855f52600560205260ff60405f2054161561098657610a418585611e41565b865f52600760205260405f20548515908115610d86575b8115610d7c575b506109645786610d665780341061091d57803411610d41575b505b5f5460018101809111610d2d575f5560405195610a9687611d2d565b8287523360208089019182526040808a0188815260608b018a815260808c0186815260a08d01888152600160c08f018181525f8c8152600298899052969096209e518f559651968e0180546001600160a01b039889166001600160a01b0319918216179091559351958e0195909555905160038d01555160048c01805491909516911617909255518051919891600583019167ffffffffffffffff821161054b57610b418354611db8565b601f8111610ce8575b50602090601f8311600114610c5457610bed94889794847f45a59b9eac10b3db5df608180b067b79b585a283075f2598cff97aefce35560c98956108f49d9e9f956006955f92610c49575b50508160011b915f199060031b1c19161790555b019051151560ff80198354169116179055805f52600660205260405f20610bd18b8254611e41565b905560405192839233845260a0602085015260a0840190611cc7565b9060408301528860608301528960808301520390a260015f5160206120dd5f395f51905f5255604080519182526020820194909452928301939093523360608301526001600160a01b03909216608082015290819060a0820190565b015190505f80610b95565b90601f19831691845f52815f20925f5b818110610cd05750946001856108f49d9e9f95600695610bed9a957f45a59b9eac10b3db5df608180b067b79b585a283075f2598cff97aefce35560c9c998f9e9b10610cb8575b505050811b019055610ba9565b01515f1960f88460031b161c191690555f8080610cab565b92936020600181928786015181550195019301610c64565b835f5260205f20601f840160051c81019160208510610d23575b601f0160051c01905b818110610d185750610b4a565b5f8155600101610d0b565b9091508190610d02565b634e487b7160e01b5f52601160045260245ffd5b5f8080610d4f819434611e05565b335af1610d5a611e12565b50156104165786610a78565b3461094657610d7790303389611ff5565b610a7a565b9050811088610a5f565b87159150610a58565b3461064457606036600319011261064457610da8611c87565b602435906044356001600160a01b0381169081900361064457610dc9611eef565b610dd1611f7a565b805f52600660205260405f2054831161055f57805f52600660205260405f20610dfb848254611e05565b905580610e6f575f808080866001600160a01b0387165af1610e1b611e12565b5015610416577f87044da2612407bc001bb0985725dcc651a0dc71eaabfd1d7e8617ca85a8c19c916040915b825194855260208501526001600160a01b031692a260015f5160206120dd5f395f51905f5255005b8181610e9f857f87044da2612407bc001bb0985725dcc651a0dc71eaabfd1d7e8617ca85a8c19c95604095611fb2565b610e47565b3461064457606036600319011261064457600435610ec0611c9d565b604435610ecb611f7a565b335f52600460205260ff60405f20541615610635578015611119576001600160a01b038216801561110a57835f52600260205260405f20604051610f0e81611d2d565b8154815260018060a01b036001830154166020820152600282015460408201526003820154906060810191825260018060a01b03600484015416926080820193845260058101604051905f90805490610f6682611db8565b80855291600181169081156110e357506001146110a6575b50509181610f9260069360ff950382611d49565b60a0850152015416151560c0820152511561059d5751831161109757845f526002602052600360405f2001610fc8848254611e05565b905560018060a01b038151165f52600660205260405f20610fea848254611e05565b9055516001600160a01b03168061106357505f80808481945af161100c611e12565b5015610416577f98701faa3f2f1270faf97e612ef209b055944d018b624726f35b036de169312c915b604080516001600160a01b039290921682526020820192909252a260015f5160206120dd5f395f51905f5255005b839150827f98701faa3f2f1270faf97e612ef209b055944d018b624726f35b036de169312c9461109292611fb2565b611035565b638d53e55360e01b5f5260045ffd5b5f908152602081209092505b8183106110c9575050810160200181610f92610f7e565b6001816020929493945483858801015201910191906110b2565b60ff191660208087019190915292151560051b85019092019250839150610f929050610f7e565b6304483f3f60e31b5f5260045ffd5b63cc3440c960e01b5f5260045ffd5b3461064457602036600319011261064457600435611144611eef565b801561059d576020817f6813975ec90107b6af911fce6b78c51a9634d4019096c7e0be97305b38d9e6ba925f55604051908152a1005b34610644575f366003190112610644575f5160206120bd5f395f51905f52546040516001600160a01b039091168152602090f35b34610644576040366003190112610644576111c7611c87565b602435906111d3611eef565b6001600160a01b03165f8181526005602052604090205490919060ff16156109865780156109645760207f752376a7b9ab25603152a064d1999ffee4cc33e72d62a555135fc56ab2bec30891835f52600782528060405f2055604051908152a2005b346106445760403660031901126106445761124e611c87565b602435611259611eef565b6001600160a01b0382165f8181526005602052604090205490929060ff166113a5578115610964575f838152600560209081526040808320805460ff19166001908117909155600790925282208490555480825b82811061133c575b505050156112ec575b5060207f66ace591f7c88075839f4a0246420d0cc8a34cbe9a924cd0e1ca63c336344f4b91604051908152a2005b60015491600160401b83101561054b576113356020926104a58560017f66ace591f7c88075839f4a0246420d0cc8a34cbe9a924cd0e1ca63c336344f4b97016001556001611df0565b91506112be565b818110156113915760015f527fb10e2d527612073b26eecdfd717e6a320cf44b4afac2b0732d9fcbe2b7fa0cf68101546001600160a01b03168714611383576001016112ad565b5050505060018480806112b5565b634e487b7160e01b5f52603260045260245ffd5b63b1093e5b60e01b5f5260045ffd5b34610644575f366003190112610644575f51602061211d5f395f51905f5254336001600160a01b03909116036113ef576113ed33611f0f565b005b63118cdaa760e01b5f523360045260245ffd5b346106445760203660031901126106445761141b611c87565b611423611eef565b6001600160a01b03165f8181526005602052604090205460ff161561098657801561149057805f52600560205260405f2060ff198154169055805f5260076020525f60408120557f37803e2125c48ee96c38ddf04e826daf335b0e1603579040fd275aba6d06b6fc5f80a2005b63c5343a2960e01b5f5260045ffd5b34610644575f366003190112610644576114b7611eef565b5f51602061211d5f395f51905f5280546001600160a01b03199081169091555f5160206120bd5f395f51905f52805491821690555f906001600160a01b03167f8be0079c531659141344cd1fd0a4f28419497f9722a3daafe3b4186f6b6457e08280a3005b3461064457602036600319011261064457611535611c87565b61153d611eef565b6001600160a01b03165f818152600460205260408120805460ff191660011790553391907fbf3f493c772c8c283fd124432c2d0f539ab343faa04258fe88e52912d36b102b9080a3005b34610644576020366003190112610644576004355f52600360205260405f206040519081602082549182815201915f5260205f20905f5b8181106115e1576108f4856115d581870382611d49565b60405191829182611ceb565b82546001600160a01b03168452602090930192600192830192016115be565b34610644576020366003190112610644576001600160a01b03611621611c87565b165f526005602052602060ff60405f2054166040519015158152f35b346106445760403660031901126106445760043567ffffffffffffffff811161064457366023820112156106445780600401359067ffffffffffffffff821161054b578160051b604051926116956020830185611d49565b8352602460208401918301019136831161064457602401905b82821061192657836116be611c9d565b905f5160206120fd5f395f51905f525460ff8160401c16159267ffffffffffffffff82168015908161191e575b6001149081611914575b15908161190b575b506118fc5767ffffffffffffffff1982166001175f5160206120fd5f395f51905f525561173891846118d0575b50611733612039565b611f0f565b611740612039565b611748612039565b60015f5160206120dd5f395f51905f528190555f8080553381526004602090815260408220805460ff1990811685179091559180527f05b8ccbb9d4d8fb16ea74ce3c29a41f1b461fbdaff4714a0d9a8eb05499746bc8054909216831790915560079052620186a07f6d5257204ebe7d88fd91ae87941cb2dd9d8062b64ae5a2bd2d28ec40b9fbf6df5554600160401b81101561054b578060016117f192016001556001611df0565b81549060018060a01b039060031b1b191690555f5b815181101561183e57600190818060a01b0360208260051b85010151165f52600460205260405f208260ff1982541617905501611806565b506118707fe58d4b3592c74e580b584cc31679cad3eefea91577f47aabd1764352d4b4901b9160405191829182611ceb565b0390a161187957005b68ff0000000000000000195f5160206120fd5f395f51905f5254165f5160206120fd5f395f51905f52557fc7f505b2f371ae2175ee4913f4499e1f2633a7b5936321eed1cdaeb6115181d2602060405160018152a1005b68ffffffffffffffffff191668010000000000000001175f5160206120fd5f395f51905f52558461172a565b63f92ee8a960e01b5f5260045ffd5b905015856116fd565b303b1591506116f5565b8591506116eb565b6020809161193384611cb3565b8152019101906116ae565b34610644575f3660031901126106445760405180602060015491828152019060015f527fb10e2d527612073b26eecdfd717e6a320cf44b4afac2b0732d9fcbe2b7fa0cf6905f5b81811061199c576108f4856115d581870382611d49565b82546001600160a01b0316845260209093019260019283019201611985565b34610644576020366003190112610644576001600160a01b036119dc611c87565b165f526004602052602060ff60405f2054166040519015158152f35b34610644576020366003190112610644575f60c0604051611a1881611d2d565b828152826020820152826040820152826060820152826080820152606060a082015201526004355f52600260205260405f20604051611a5681611d2d565b8154815260018060a01b0360018301541691602082019283526002810154604083019081526003820154916060840192835260018060a01b0360048201541660808501908152600582019160405180935f90805490611ab482611db8565b8085529160018116908115611ba75750600114611b67575b505091611adf60069260ff940386611d49565b60a088019485520154169360c086019415158552855115611b5857611b4b936040519788976020895251602089015260018060a01b03905116604088015251606087015251608086015260018060a01b0390511660a08501525160e060c0850152610100840190611cc7565b9051151560e08301520390f35b6311d6c75b60e31b5f5260045ffd5b5f908152602081209092505b818310611b8b5750508101602001611adf6006611acc565b6020919350806001915483858a01015201910190918592611b73565b60ff191660208087019190915292151560051b85019092019250611adf915060069050611acc565b3461064457602036600319011261064457611be8611c87565b611bf0611eef565b6001600160a01b03165f818152600460205260408120805460ff191690553391907fdb9d5d31320daf5bc7181d565b6da4d12e30f0f4d5aa324a992426c14a1d19ce9080a3005b34610644575f3660031901126106445760205f54604051908152f35b34610644576020366003190112610644576020906001600160a01b03611c77611c87565b165f526007825260405f20548152f35b600435906001600160a01b038216820361064457565b602435906001600160a01b038216820361064457565b35906001600160a01b038216820361064457565b805180835260209291819084018484015e5f828201840152601f01601f1916010190565b60206040818301928281528451809452019201905f5b818110611d0e5750505090565b82516001600160a01b0316845260209384019390920191600101611d01565b60e0810190811067ffffffffffffffff82111761054b57604052565b90601f8019910116810190811067ffffffffffffffff82111761054b57604052565b67ffffffffffffffff811161054b57601f01601f191660200190565b9181601f840112156106445782359167ffffffffffffffff8311610644576020808501948460051b01011161064457565b90600182811c92168015611de6575b6020831014611dd257565b634e487b7160e01b5f52602260045260245ffd5b91607f1691611dc7565b8054821015611391575f5260205f2001905f90565b91908203918211610d2d57565b3d15611e3c573d90611e2382611d6b565b91611e316040519384611d49565b82523d5f602084013e565b606090565b91908201809211610d2d57565b6001600160a01b03168015611ec6576020602491604051928380926370a0823160e01b82523060048301525afa908115611ebb575f91611e8c575090565b90506020813d602011611eb3575b81611ea760209383611d49565b81010312610644575190565b3d9150611e9a565b6040513d5f823e3d90fd5b504790565b91908110156113915760051b0190565b356001600160a01b03811681036106445790565b5f5160206120bd5f395f51905f52546001600160a01b031633036113ef57565b5f51602061211d5f395f51905f5280546001600160a01b03199081169091555f5160206120bd5f395f51905f5280549182166001600160a01b0393841690811790915591167f8be0079c531659141344cd1fd0a4f28419497f9722a3daafe3b4186f6b6457e05f80a3565b60025f5160206120dd5f395f51905f525414611fa35760025f5160206120dd5f395f51905f5255565b633ee5aeb560e01b5f5260045ffd5b60405163a9059cbb60e01b60208201526001600160a01b03929092166024830152604480830193909352918152611ff391611fee606483611d49565b612064565b565b6040516323b872dd60e01b60208201526001600160a01b039283166024820152929091166044830152606480830193909352918152611ff391611fee608483611d49565b60ff5f5160206120fd5f395f51905f525460401c161561205557565b631afcd79f60e31b5f5260045ffd5b905f602091828151910182855af115611ebb575f513d6120b357506001600160a01b0381163b155b6120935750565b635274afe760e01b5f9081526001600160a01b0391909116600452602490fd5b6001141561208c56fe9016d09d72d40fdae2fd8ceac6b6234c7706214fd39c1cd1e609a0528c1993009b779b17422d0df92223018b32b4d1fa46e071723d6817e2486d003becc55f00f0c57e16840df040f15088dc2f81fe391c3923bec73e23a9662efc9c229c6a00237e158222e3e6968b72b9db0d8043aacf074ad9f650f0d1606b4d82ee432c00a264697066735822122020c8e85ea2a83ffec3cbf9760bb261ee68ccd74b2ca30cf1275d9f1f93aa1d5764736f6c634300081c0033f0c57e16840df040f15088dc2f81fe391c3923bec73e23a9662efc9c229c6a00",
    "linkReferences": {}
  },
  "methodIdentifiers": {
    "acceptOwnership()": "79ba5097",
    "addAdmin(address)": "70480275",
    "addAssetSupport(address,uint256)": "8944b192",
    "createRequest(uint256,uint256,uint256,address,string)": "a62de1cc",
    "getAllAssets()": "2acada4d",
    "getFeeBalance(address)": "c78f6803",
    "getMinimumBudget(address)": "12753b13",
    "getTotalBalance(address)": "d3d38193",
    "getTotalYapRequests()": "15dae71c",
    "getWinners(uint256)": "6b1426a4",
    "getYapRequest(uint256)": "1c9024d3",
    "initialize(address[],address)": "462d0b2e",
    "isAdmin(address)": "24d7806c",
    "isAssetSupported(address)": "464b4158",
    "owner()": "8da5cb5b",
    "pendingOwner()": "e30c3978",
    "removeAdmin(address)": "1785f53c",
    "removeAssetSupport(address)": "75bcb9f4",
    "renounceOwnership()": "715018a6",
    "resetYapRequestCount(uint256)": "968dc598",
    "rewardAffiliateFromFees(uint256,address,uint256)": "98cbcec5",
    "rewardYapWinners(uint256,address[],uint256[],bool)": "fa0f3d44",
    "topUpRequest(uint256,uint256,uint256)": "a827ba27",
    "transferOwnership(address)": "f2fde38b",
    "updateAssetRequirements(address,uint256)": "8c3bba8a",
    "withdrawFees(address,uint256,address)": "9ba372c2"
  },
  "id": 35
}