{"abi":[{"type":"constructor","inputs":[{"name":"_baseURII","type":"string","internalType":"string"},{"name":"kaitoAddress","type":"address","internalType":"address"},{"name":"price","type":"uint256","internalType":"uint256"}],"stateMutability":"nonpayable"},{"type":"function","name":"approve","inputs":[{"name":"to","type":"address","internalType":"address"},{"name":"tokenId","type":"uint256","internalType":"uint256"}],"outputs":[],"stateMutability":"nonpayable"},{"type":"function","name":"balanceOf","inputs":[{"name":"owner","type":"address","internalType":"address"}],"outputs":[{"name":"","type":"uint256","internalType":"uint256"}],"stateMutability":"view"},{"type":"function","name":"getApproved","inputs":[{"name":"tokenId","type":"uint256","internalType":"uint256"}],"outputs":[{"name":"","type":"address","internalType":"address"}],"stateMutability":"view"},{"type":"function","name":"getBalance","inputs":[],"outputs":[{"name":"","type":"uint256","internalType":"uint256"}],"stateMutability":"view"},{"type":"function","name":"getKaitoAddress","inputs":[],"outputs":[{"name":"","type":"address","internalType":"address"}],"stateMutability":"view"},{"type":"function","name":"getMaxSupply","inputs":[],"outputs":[{"name":"","type":"uint256","internalType":"uint256"}],"stateMutability":"pure"},{"type":"function","name":"getPrice","inputs":[],"outputs":[{"name":"","type":"uint256","internalType":"uint256"}],"stateMutability":"view"},{"type":"function","name":"isApprovedForAll","inputs":[{"name":"owner","type":"address","internalType":"address"},{"name":"operator","type":"address","internalType":"address"}],"outputs":[{"name":"","type":"bool","internalType":"bool"}],"stateMutability":"view"},{"type":"function","name":"isHolder","inputs":[{"name":"wallet","type":"address","internalType":"address"}],"outputs":[{"name":"","type":"bool","internalType":"bool"}],"stateMutability":"view"},{"type":"function","name":"mint","inputs":[{"name":"tokenId","type":"uint256","internalType":"uint256"}],"outputs":[],"stateMutability":"nonpayable"},{"type":"function","name":"name","inputs":[],"outputs":[{"name":"","type":"string","internalType":"string"}],"stateMutability":"view"},{"type":"function","name":"owner","inputs":[],"outputs":[{"name":"","type":"address","internalType":"address"}],"stateMutability":"view"},{"type":"function","name":"ownerOf","inputs":[{"name":"tokenId","type":"uint256","internalType":"uint256"}],"outputs":[{"name":"","type":"address","internalType":"address"}],"stateMutability":"view"},{"type":"function","name":"ownerOfToken","inputs":[{"name":"tokenId","type":"uint256","internalType":"uint256"}],"outputs":[{"name":"","type":"address","internalType":"address"}],"stateMutability":"view"},{"type":"function","name":"renounceOwnership","inputs":[],"outputs":[],"stateMutability":"nonpayable"},{"type":"function","name":"resetPrice","inputs":[{"name":"price","type":"uint256","internalType":"uint256"}],"outputs":[],"stateMutability":"nonpayable"},{"type":"function","name":"s_MAX_SUPPLY","inputs":[],"outputs":[{"name":"","type":"uint256","internalType":"uint256"}],"stateMutability":"view"},{"type":"function","name":"s_baseURI","inputs":[],"outputs":[{"name":"","type":"string","internalType":"string"}],"stateMutability":"view"},{"type":"function","name":"safeTransferFrom","inputs":[{"name":"from","type":"address","internalType":"address"},{"name":"to","type":"address","internalType":"address"},{"name":"tokenId","type":"uint256","internalType":"uint256"}],"outputs":[],"stateMutability":"nonpayable"},{"type":"function","name":"safeTransferFrom","inputs":[{"name":"from","type":"address","internalType":"address"},{"name":"to","type":"address","internalType":"address"},{"name":"tokenId","type":"uint256","internalType":"uint256"},{"name":"data","type":"bytes","internalType":"bytes"}],"outputs":[],"stateMutability":"nonpayable"},{"type":"function","name":"setApprovalForAll","inputs":[{"name":"operator","type":"address","internalType":"address"},{"name":"approved","type":"bool","internalType":"bool"}],"outputs":[],"stateMutability":"nonpayable"},{"type":"function","name":"setBaseURI","inputs":[{"name":"_newBaseURI","type":"string","internalType":"string"}],"outputs":[],"stateMutability":"nonpayable"},{"type":"function","name":"supportsInterface","inputs":[{"name":"interfaceId","type":"bytes4","internalType":"bytes4"}],"outputs":[{"name":"","type":"bool","internalType":"bool"}],"stateMutability":"view"},{"type":"function","name":"symbol","inputs":[],"outputs":[{"name":"","type":"string","internalType":"string"}],"stateMutability":"view"},{"type":"function","name":"tokenByIndex","inputs":[{"name":"index","type":"uint256","internalType":"uint256"}],"outputs":[{"name":"","type":"uint256","internalType":"uint256"}],"stateMutability":"view"},{"type":"function","name":"tokenOfOwnerByIndex","inputs":[{"name":"owner","type":"address","internalType":"address"},{"name":"index","type":"uint256","internalType":"uint256"}],"outputs":[{"name":"","type":"uint256","internalType":"uint256"}],"stateMutability":"view"},{"type":"function","name":"tokenURI","inputs":[{"name":"tokenId","type":"uint256","internalType":"uint256"}],"outputs":[{"name":"","type":"string","internalType":"string"}],"stateMutability":"view"},{"type":"function","name":"totalSupply","inputs":[],"outputs":[{"name":"","type":"uint256","internalType":"uint256"}],"stateMutability":"view"},{"type":"function","name":"transferFrom","inputs":[{"name":"from","type":"address","internalType":"address"},{"name":"to","type":"address","internalType":"address"},{"name":"tokenId","type":"uint256","internalType":"uint256"}],"outputs":[],"stateMutability":"nonpayable"},{"type":"function","name":"transferOwnership","inputs":[{"name":"newOwner","type":"address","internalType":"address"}],"outputs":[],"stateMutability":"nonpayable"},{"type":"function","name":"withdraw","inputs":[],"outputs":[],"stateMutability":"nonpayable"},{"type":"event","name":"Approval","inputs":[{"name":"owner","type":"address","indexed":true,"internalType":"address"},{"name":"approved","type":"address","indexed":true,"internalType":"address"},{"name":"tokenId","type":"uint256","indexed":true,"internalType":"uint256"}],"anonymous":false},{"type":"event","name":"ApprovalForAll","inputs":[{"name":"owner","type":"address","indexed":true,"internalType":"address"},{"name":"operator","type":"address","indexed":true,"internalType":"address"},{"name":"approved","type":"bool","indexed":false,"internalType":"bool"}],"anonymous":false},{"type":"event","name":"BaseURIUpdated","inputs":[{"name":"newBaseURI","type":"string","indexed":false,"internalType":"string"},{"name":"updater","type":"address","indexed":true,"internalType":"address"}],"anonymous":false},{"type":"event","name":"FeesWithdrawn","inputs":[{"name":"to","type":"address","indexed":true,"internalType":"address"},{"name":"amount","type":"uint256","indexed":false,"internalType":"uint256"}],"anonymous":false},{"type":"event","name":"NFTMinted","inputs":[{"name":"minter","type":"address","indexed":true,"internalType":"address"},{"name":"tokenId","type":"uint256","indexed":true,"internalType":"uint256"}],"anonymous":false},{"type":"event","name":"OwnershipTransferred","inputs":[{"name":"previousOwner","type":"address","indexed":true,"internalType":"address"},{"name":"newOwner","type":"address","indexed":true,"internalType":"address"}],"anonymous":false},{"type":"event","name":"PriceUpdated","inputs":[{"name":"newPrice","type":"uint256","indexed":false,"internalType":"uint256"},{"name":"updater","type":"address","indexed":true,"internalType":"address"}],"anonymous":false},{"type":"event","name":"Transfer","inputs":[{"name":"from","type":"address","indexed":true,"internalType":"address"},{"name":"to","type":"address","indexed":true,"internalType":"address"},{"name":"tokenId","type":"uint256","indexed":true,"internalType":"uint256"}],"anonymous":false},{"type":"error","name":"AddressNotHolder","inputs":[{"name":"wallet","type":"address","internalType":"address"}]},{"type":"error","name":"AllNFTsMinted","inputs":[]},{"type":"error","name":"CannotMintToZeroAddress","inputs":[]},{"type":"error","name":"ERC721EnumerableForbiddenBatchMint","inputs":[]},{"type":"error","name":"ERC721IncorrectOwner","inputs":[{"name":"sender","type":"address","internalType":"address"},{"name":"tokenId","type":"uint256","internalType":"uint256"},{"name":"owner","type":"address","internalType":"address"}]},{"type":"error","name":"ERC721InsufficientApproval","inputs":[{"name":"operator","type":"address","internalType":"address"},{"name":"tokenId","type":"uint256","internalType":"uint256"}]},{"type":"error","name":"ERC721InvalidApprover","inputs":[{"name":"approver","type":"address","internalType":"address"}]},{"type":"error","name":"ERC721InvalidOperator","inputs":[{"name":"operator","type":"address","internalType":"address"}]},{"type":"error","name":"ERC721InvalidOwner","inputs":[{"name":"owner","type":"address","internalType":"address"}]},{"type":"error","name":"ERC721InvalidReceiver","inputs":[{"name":"receiver","type":"address","internalType":"address"}]},{"type":"error","name":"ERC721InvalidSender","inputs":[{"name":"sender","type":"address","internalType":"address"}]},{"type":"error","name":"ERC721NonexistentToken","inputs":[{"name":"tokenId","type":"uint256","internalType":"uint256"}]},{"type":"error","name":"ERC721OutOfBoundsIndex","inputs":[{"name":"owner","type":"address","internalType":"address"},{"name":"index","type":"uint256","internalType":"uint256"}]},{"type":"error","name":"IndexOutOfBounds","inputs":[{"name":"index","type":"uint256","internalType":"uint256"}]},{"type":"error","name":"InvalidTokenId","inputs":[{"name":"tokenId","type":"uint256","internalType":"uint256"}]},{"type":"error","name":"OwnableInvalidOwner","inputs":[{"name":"owner","type":"address","internalType":"address"}]},{"type":"error","name":"OwnableUnauthorizedAccount","inputs":[{"name":"account","type":"address","internalType":"address"}]},{"type":"error","name":"ReentrancyGuardReentrantCall","inputs":[]},{"type":"error","name":"SafeERC20FailedOperation","inputs":[{"name":"token","type":"address","internalType":"address"}]},{"type":"error","name":"TokenAlreadyMinted","inputs":[{"name":"tokenId","type":"uint256","internalType":"uint256"}]},{"type":"error","name":"TokenDoesNotExist","inputs":[{"name":"tokenId","type":"uint256","internalType":"uint256"}]}],"bytecode":{"object":"0x608060405234610554576120688038038061001981610558565b92833981016060828203126105545781516001600160401b03811161055457820181601f82011215610554578051906001600160401b03821161036d57610069601f8301601f1916602001610558565b928284526020838301011161055457815f9260208093018386015e8301015260208201516001600160a01b038116929083900361055457604001516100ae6040610558565b92600f84526e16585c0813585c9ad95d0815195cdd608a1b60208501526100d56040610558565b600381526216535560ea1b6020820152845190946001600160401b03821161036d575f5490600182811c9216801561054a575b602083101461034f5781601f8493116104dd575b50602090601f831160011461047a575f9261046f575b50508160011b915f199060031b1c1916175f555b83516001600160401b03811161036d57600154600181811c91168015610465575b602082101461034f57601f8111610402575b50602094601f821160011461039f579481929394955f92610394575b50508160011b915f199060031b1c1916176001555b331561038157600a8054336001600160a01b0319821681179092556001600160a01b03167f8be0079c531659141344cd1fd0a4f28419497f9722a3daafe3b4186f6b6457e05f80a36001600b5582516001600160401b03811161036d57600c54600181811c91168015610363575b602082101461034f57601f81116102ec575b506020601f821160011461028957819293945f9261027e575b50508160011b915f199060031b1c191617600c555b600e80546001600160a01b031916919091179055600f55604051611aea908161057e8239f35b015190505f80610243565b601f19821690600c5f52805f20915f5b8181106102d4575095836001959697106102bc575b505050811b01600c55610258565b01515f1960f88460031b161c191690555f80806102ae565b9192602060018192868b015181550194019201610299565b600c5f527fdf6966c971051c3d54ec59162606531493a51404a002842f56009d7e5cf4a8c7601f830160051c81019160208410610345575b601f0160051c01905b81811061033a575061022a565b5f815560010161032d565b9091508190610324565b634e487b7160e01b5f52602260045260245ffd5b90607f1690610218565b634e487b7160e01b5f52604160045260245ffd5b631e4fbdf760e01b5f525f60045260245ffd5b015190505f80610195565b601f1982169560015f52805f20915f5b8881106103ea575083600195969798106103d2575b505050811b016001556101aa565b01515f1960f88460031b161c191690555f80806103c4565b919260206001819286850151815501940192016103af565b60015f527fb10e2d527612073b26eecdfd717e6a320cf44b4afac2b0732d9fcbe2b7fa0cf6601f830160051c8101916020841061045b575b601f0160051c01905b8181106104505750610179565b5f8155600101610443565b909150819061043a565b90607f1690610167565b015190505f80610132565b5f8080528281209350601f198516905b8181106104c557509084600195949392106104ad575b505050811b015f55610146565b01515f1960f88460031b161c191690555f80806104a0565b9293602060018192878601518155019501930161048a565b5f80529091507f290decd9548b62a8d60345a988386fc84ba6bc95484008f6362f93160ef3e563601f840160051c81019160208510610540575b90601f859493920160051c01905b818110610532575061011c565b5f8155849350600101610525565b9091508190610517565b91607f1691610108565b5f80fd5b6040519190601f01601f191682016001600160401b0381118382101761036d5760405256fe6080806040526004361015610012575f80fd5b5f3560e01c90816301ffc9a7146113e65750806306fdde0314611344578063081812fc14611308578063095ea7b31461121e57806312065fe01461119757806318160ddd1461117a57806323b872dd146111635780632f745c59146110f15780632ff3cc3414610fad5780633ccfd60b14610ff857806342842e0e14610fc95780634c0f38c214610fad5780634f6ccce714610f5f57806355f804b314610da75780635a8b04ab14610d7f5780636352211e14610d4f57806365935e1b14610cbd57806370a0823114610c97578063715018a614610c3c5780638da5cb5b14610c1457806395d89b4114610b4a57806398d5fdca14610b2d578063a0712d68146106d1578063a22cb46514610636578063b88d4fde146105c8578063c57ac5d61461056e578063c87b56dd146102cd578063d4d7b19a146102a0578063de8e81ed14610252578063e985e9c5146101fb5763f2fde38b14610171575f80fd5b346101f75760203660031901126101f75761018a61148f565b6101926118ba565b6001600160a01b031680156101e457600a80546001600160a01b0319811683179091556001600160a01b03167f8be0079c531659141344cd1fd0a4f28419497f9722a3daafe3b4186f6b6457e05f80a3005b631e4fbdf760e01b5f525f60045260245ffd5b5f80fd5b346101f75760403660031901126101f75761021461148f565b61021c6114a5565b9060018060a01b03165f52600560205260405f209060018060a01b03165f52602052602060ff60405f2054166040519015158152f35b346101f75760203660031901126101f75760043561026e6118ba565b80600f556040519081527fd8418c2edea4801b73e29837a4f03ac739cddfb84a3e033356997ab034369a6160203392a2005b346101f75760203660031901126101f75760206102c36102be61148f565b611855565b1515604051908152f35b346101f75760203660031901126101f7576004356102ea81611a17565b1561055c57600181108015610551575b61053f5780815f9272184f03e93ff9f4daa797ed6e38ed64bf6a1f0160401b811015610519575b50806d04ee2d6d415b85acef8100000000600a9210156104fe575b662386f26fc100008110156104ea575b6305f5e1008110156104d9575b6127108110156104ca575b60648110156104bc575b10156104b2575b6001820190600a60216103a061038a85611517565b9461039860405196876114f5565b808652611517565b602085019590601f19013687378401015b5f1901916f181899199a1a9b1b9c1cb0b131b232b360811b8282061a83530480156103df57600a90916103b1565b5050604051905f90600c546103f381611569565b9060018116908115610490575060011461044d575b50826104499461043593600593518092825e0164173539b7b760d91b815203601a198101845201826114f5565b60405191829160208352602083019061146b565b0390f35b909150600c5f525f516020611a955f395f51905f525f905b82821061047a57505082016020019082610408565b6001816020925483858901015201910190610465565b60ff191660208681019190915282151590920285019091019250839050610408565b9060010190610375565b60646002910493019261036e565b61271060049104930192610364565b6305f5e10060089104930192610359565b662386f26fc100006010910493019261034c565b6d04ee2d6d415b85acef81000000006020910493019261033c565b6040935072184f03e93ff9f4daa797ed6e38ed64bf6a1f0160401b90049050600a610321565b63ed15e6cf60e01b5f5260045260245ffd5b5061016881116102fa565b63c927e5bf60e01b5f5260045260245ffd5b346101f75760203660031901126101f75760043561058b81611a17565b1561055c576001811080156105bd575b61053f575f52600d602052602060018060a01b0360405f205416604051908152f35b50610168811161059b565b346101f75760803660031901126101f7576105e161148f565b6105e96114a5565b906044356064359267ffffffffffffffff84116101f757366023850112156101f757610622610634943690602481600401359101611533565b9261062e8383836115a1565b336118e1565b005b346101f75760403660031901126101f75761064f61148f565b602435908115158092036101f7576001600160a01b03169081156106be57335f52600560205260405f20825f5260205260405f2060ff1981541660ff83161790556040519081527f17307eab39ab6107e8899845ad3d59bd9653f200f220920489ca2b5937696c3160203392a3005b50630b61174360e31b5f5260045260245ffd5b346101f75760203660031901126101f7576004356002600b5414610b1e576002600b556101686008541015610b0f57600181108015610b04575b61053f575f818152600d60205260409020546001600160a01b0316610af257600e54600f546040516323b872dd60e01b6020820152336024820152306044820152606480820192909252908152610775916001600160a01b03166107706084836114f5565b611a3c565b5f818152600d602090815260409182902080546001600160a01b0319163317905590519091906107a583826114f5565b5f81523315610adf575f8281526002845260409020546001600160a01b031680158015919082610aae575b335f8181526003885260408082208054600101905587825260028952812080546001600160a01b0319168317905586919084907fddf252ad1be2c89b69c2b068fc378daa952ba7f163c4a11628f55a4df523b3ef9080a415610a3857600854845f52600986528060405f2055600160401b811015610a24578461085c8260016108749401600855611829565b90919082549060031b91821b915f19901b1916179055565b3381036109d5575b506109c257333b6108b5575b50337f4cc0a9c4a99ddc700de1af2c9f916a7cbfdb71f14801ccff94061ad1ef8a80405f80a36001600b55005b826108ee9160405180938192630a85bd0160e11b83523360048401525f602484015286604484015260806064840152608483019061146b565b03815f335af15f9181610982575b5061094e57823d15610947573d61091281611517565b9061092060405192836114f5565b81523d5f8383013e5b8051918261094457633250574960e11b5f523360045260245ffd5b01fd5b6060610929565b9091506001600160e01b03191663757a42ff60e11b0161096f578082610888565b633250574960e11b5f523360045260245ffd5b9091508381813d83116109bb575b61099a81836114f5565b810103126101f757516001600160e01b0319811681036101f75790846108fc565b503d610990565b6339e3563760e11b5f525f60045260245ffd5b6109de33611855565b5f198101908111610a1057335f526006865260405f20815f5286528460405f2055845f526007865260405f205561087c565b634e487b7160e01b5f52601160045260245ffd5b634e487b7160e01b5f52604160045260245ffd5b33811461087457610a4881611855565b845f526007865260405f205490825f526006875260405f2091818103610a86575b50855f52600787525f60408120555f5285525f6040812055610874565b815f5282885260405f2054815f528389528060405f20555f526007885260405f205587610a69565b5f8581526004602052604080822080546001600160a01b031916905583825260038852902080545f190190556107d0565b633250574960e11b5f525f60045260245ffd5b6322d1d39560e21b5f5260045260245ffd5b50610168811161070b565b63e51add9960e01b5f5260045ffd5b633ee5aeb560e01b5f5260045ffd5b346101f7575f3660031901126101f7576020600f54604051908152f35b346101f7575f3660031901126101f7576040515f600154610b6a81611569565b8084529060018116908115610bf05750600114610b92575b61044983610435818503826114f5565b60015f9081527fb10e2d527612073b26eecdfd717e6a320cf44b4afac2b0732d9fcbe2b7fa0cf6939250905b808210610bd657509091508101602001610435610b82565b919260018160209254838588010152019101909291610bbe565b60ff191660208086019190915291151560051b840190910191506104359050610b82565b346101f7575f3660031901126101f757600a546040516001600160a01b039091168152602090f35b346101f7575f3660031901126101f757610c546118ba565b600a80546001600160a01b031981169091555f906001600160a01b03167f8be0079c531659141344cd1fd0a4f28419497f9722a3daafe3b4186f6b6457e08280a3005b346101f75760203660031901126101f7576020610cb56102be61148f565b604051908152f35b346101f7575f3660031901126101f7576040515f600c54610cdd81611569565b8084529060018116908115610bf05750600114610d045761044983610435818503826114f5565b600c5f9081525f516020611a955f395f51905f52939250905b808210610d3557509091508101602001610435610b82565b919260018160209254838588010152019101909291610d1d565b346101f75760203660031901126101f7576020610d6d600435611886565b6040516001600160a01b039091168152f35b346101f7575f3660031901126101f757600e546040516001600160a01b039091168152602090f35b346101f75760203660031901126101f75760043567ffffffffffffffff81116101f757366023820112156101f757610de9903690602481600401359101611533565b610df16118ba565b805167ffffffffffffffff8111610a2457610e0d600c54611569565b601f8111610ef7575b50806020601f8211600114610e88575f91610e7d575b508160011b915f199060031b1c191617600c555b7f287fb35d24416ff0dd04e0934f29883f30a8ed9a5a8aef3bf65d165b01aa0e426040516020815280610e783394602083019061146b565b0390a2005b905082015183610e2c565b600c5f9081525f516020611a955f395f51905f529250601f198416905b818110610edf57509083600194939210610ec7575b5050811b01600c55610e40565b8401515f1960f88460031b161c191690558380610eba565b91926020600181928689015181550194019201610ea5565b600c5f52601f820160051c5f516020611a955f395f51905f52019060208310610f4a575b601f0160051c5f516020611a955f395f51905f5201905b818110610f3f5750610e16565b5f8155600101610f32565b5f516020611a955f395f51905f529150610f1b565b346101f75760203660031901126101f757600435600854811015610f9757610f88602091611829565b90549060031b1c604051908152f35b63295f44f760e21b5f525f60045260245260445ffd5b346101f7575f3660031901126101f75760206040516101688152f35b346101f757610634610fda366114bb565b9060405192610fea6020856114f5565b5f845261062e8383836115a1565b346101f7575f3660031901126101f7576110106118ba565b600e546040516370a0823160e01b8152306004820152906001600160a01b0316602082602481845afa9182156110e6575f926110b2575b508161107d575b506040519081527fc0819c13be868895eb93e40eaceb96de976442fa1d404e5c55f14bb65a8c489a60203392a2005b60405163a9059cbb60e01b6020820152336024820152604480820184905281526110ac916107706064836114f5565b8161104e565b9091506020813d6020116110de575b816110ce602093836114f5565b810103126101f757519082611047565b3d91506110c1565b6040513d5f823e3d90fd5b346101f75760403660031901126101f75761110a61148f565b6024359061111781611855565b8210156111465760018060a01b03165f52600660205260405f20905f52602052602060405f2054604051908152f35b63295f44f760e21b5f5260018060a01b031660045260245260445ffd5b346101f757610634611174366114bb565b916115a1565b346101f7575f3660031901126101f7576020600854604051908152f35b346101f7575f3660031901126101f757600e546040516370a0823160e01b815230600482015290602090829060249082906001600160a01b03165afa80156110e6575f906111eb575b602090604051908152f35b506020813d602011611216575b81611205602093836114f5565b810103126101f757602090516111e0565b3d91506111f8565b346101f75760403660031901126101f75761123761148f565b60243561124381611886565b331515806112f5575b806112c8575b6112b55781906001600160a01b0384811691167f8c5be1e5ebec7d5bd14f71427d1e84f3dd0314c0f7b2291e5b200ac8c7c3b9255f80a45f90815260046020526040902080546001600160a01b0319166001600160a01b03909216919091179055005b63a9fbf51f60e01b5f523360045260245ffd5b506001600160a01b0381165f90815260056020908152604080832033845290915290205460ff1615611252565b506001600160a01b03811633141561124c565b346101f75760203660031901126101f75760043561132581611886565b505f526004602052602060018060a01b0360405f205416604051908152f35b346101f7575f3660031901126101f7576040515f5f5461136381611569565b8084529060018116908115610bf0575060011461138a5761044983610435818503826114f5565b5f8080527f290decd9548b62a8d60345a988386fc84ba6bc95484008f6362f93160ef3e563939250905b8082106113cc57509091508101602001610435610b82565b9192600181602092548385880101520191019092916113b4565b346101f75760203660031901126101f7576004359063ffffffff60e01b82168092036101f75760209163780e9d6360e01b8114908115611428575b5015158152f35b6380ac58cd60e01b81149150811561145a575b8115611449575b5083611421565b6301ffc9a760e01b14905083611442565b635b5e139f60e01b8114915061143b565b805180835260209291819084018484015e5f828201840152601f01601f1916010190565b600435906001600160a01b03821682036101f757565b602435906001600160a01b03821682036101f757565b60609060031901126101f7576004356001600160a01b03811681036101f757906024356001600160a01b03811681036101f7579060443590565b90601f8019910116810190811067ffffffffffffffff821117610a2457604052565b67ffffffffffffffff8111610a2457601f01601f191660200190565b92919261153f82611517565b9161154d60405193846114f5565b8294818452818301116101f7578281602093845f960137010152565b90600182811c92168015611597575b602083101461158357565b634e487b7160e01b5f52602260045260245ffd5b91607f1691611578565b9091906001600160a01b0383168015610adf575f838152600260205260409020546001600160a01b03169333151580611799575b5084158015611766575b825f52600360205260405f2060018154019055845f52600260205260405f20836bffffffffffffffffffffffff60a01b8254161790558483877fddf252ad1be2c89b69c2b068fc378daa952ba7f163c4a11628f55a4df523b3ef5f80a4156116e957600854845f5260096020528060405f2055600160401b811015610a24578461085c8260016116729401600855611829565b8185036116a9575b50506001600160a01b031680830361169157505050565b6364283d7b60e01b5f5260045260245260445260645ffd5b6116b290611855565b5f19810191908211610a10575f52600660205260405f20815f526020528260405f2055825f52600760205260405f20555f8061167a565b848214611672576116f985611855565b845f52600760205260405f205490865f52600660205260405f209181810361173b575b50855f5260076020525f60408120555f526020525f6040812055611672565b815f528260205260405f2054815f52836020528060405f20555f52600760205260405f20555f61171c565b5f85815260046020526040902080546001600160a01b0319169055855f52600360205260405f205f1981540190556115df565b806117d8575b156117aa575f6115d5565b83856117c257637e27328960e01b5f5260045260245ffd5b63177e802f60e01b5f523360045260245260445ffd5b503385148015611807575b8061179f57505f848152600460205260409020546001600160a01b0316331461179f565b505f85815260056020908152604080832033845290915290205460ff166117e3565b6008548110156118415760085f5260205f2001905f90565b634e487b7160e01b5f52603260045260245ffd5b6001600160a01b03168015611873575f52600360205260405f205490565b6322718ad960e21b5f525f60045260245ffd5b5f818152600260205260409020546001600160a01b03169081156118a8575090565b637e27328960e01b5f5260045260245ffd5b600a546001600160a01b031633036118ce57565b63118cdaa760e01b5f523360045260245ffd5b823b6118ef575b5050505050565b604051630a85bd0160e11b81526001600160a01b03918216600482015291811660248301526044820193909352608060648201529116916020908290819061193b90608483019061146b565b03815f865af15f91816119d2575b5061199e57503d15611997573d61195f81611517565b9061196d60405192836114f5565b81523d5f602083013e5b805190816119925782633250574960e11b5f5260045260245ffd5b602001fd5b6060611977565b6001600160e01b03191663757a42ff60e11b016119c057505f808080806118e8565b633250574960e11b5f5260045260245ffd5b9091506020813d602011611a0f575b816119ee602093836114f5565b810103126101f757516001600160e01b0319811681036101f757905f611949565b3d91506119e1565b5f908152600d60205260409020546001600160a01b031615611a3857600190565b5f90565b905f602091828151910182855af1156110e6575f513d611a8b57506001600160a01b0381163b155b611a6b5750565b635274afe760e01b5f9081526001600160a01b0391909116600452602490fd5b60011415611a6456fedf6966c971051c3d54ec59162606531493a51404a002842f56009d7e5cf4a8c7a2646970667358221220d9f384e85a8c9e1866bd91b7219c436b7f90ef00dc603f2f556f58da0c97186264736f6c634300081c0033","linkReferences":{}},"methodIdentifiers":{"approve(address,uint256)":"095ea7b3","balanceOf(address)":"70a08231","getApproved(uint256)":"081812fc","getBalance()":"12065fe0","getKaitoAddress()":"5a8b04ab","getMaxSupply()":"4c0f38c2","getPrice()":"98d5fdca","isApprovedForAll(address,address)":"e985e9c5","isHolder(address)":"d4d7b19a","mint(uint256)":"a0712d68","name()":"06fdde03","owner()":"8da5cb5b","ownerOf(uint256)":"6352211e","ownerOfToken(uint256)":"c57ac5d6","renounceOwnership()":"715018a6","resetPrice(uint256)":"de8e81ed","s_MAX_SUPPLY()":"2ff3cc34","s_baseURI()":"65935e1b","safeTransferFrom(address,address,uint256)":"42842e0e","safeTransferFrom(address,address,uint256,bytes)":"b88d4fde","setApprovalForAll(address,bool)":"a22cb465","setBaseURI(string)":"55f804b3","supportsInterface(bytes4)":"01ffc9a7","symbol()":"95d89b41","tokenByIndex(uint256)":"4f6ccce7","tokenOfOwnerByIndex(address,uint256)":"2f745c59","tokenURI(uint256)":"c87b56dd","totalSupply()":"18160ddd","transferFrom(address,address,uint256)":"23b872dd","transferOwnership(address)":"f2fde38b","withdraw()":"3ccfd60b"},"id":58}